{
  "contractName": "Entity",
  "abi": [
    {
      "constant": true,
      "inputs": [
        {
          "name": "",
          "type": "address"
        },
        {
          "name": "",
          "type": "uint256"
        }
      ],
      "name": "validations",
      "outputs": [
        {
          "name": "client",
          "type": "address"
        },
        {
          "name": "index",
          "type": "uint256"
        }
      ],
      "payable": false,
      "stateMutability": "view",
      "type": "function"
    },
    {
      "constant": true,
      "inputs": [],
      "name": "owner",
      "outputs": [
        {
          "name": "",
          "type": "address"
        }
      ],
      "payable": false,
      "stateMutability": "view",
      "type": "function"
    },
    {
      "inputs": [],
      "payable": false,
      "stateMutability": "nonpayable",
      "type": "constructor"
    },
    {
      "payable": true,
      "stateMutability": "payable",
      "type": "fallback"
    },
    {
      "anonymous": false,
      "inputs": [
        {
          "indexed": false,
          "name": "initiator",
          "type": "address"
        },
        {
          "indexed": false,
          "name": "index",
          "type": "uint256"
        },
        {
          "indexed": false,
          "name": "verifier",
          "type": "address"
        }
      ],
      "name": "claimRequest",
      "type": "event"
    },
    {
      "anonymous": false,
      "inputs": [
        {
          "indexed": false,
          "name": "initiator",
          "type": "address"
        },
        {
          "indexed": false,
          "name": "amount",
          "type": "uint256"
        },
        {
          "indexed": false,
          "name": "receiver",
          "type": "address"
        }
      ],
      "name": "payment",
      "type": "event"
    },
    {
      "constant": false,
      "inputs": [],
      "name": "kill",
      "outputs": [],
      "payable": false,
      "stateMutability": "nonpayable",
      "type": "function"
    },
    {
      "constant": true,
      "inputs": [
        {
          "name": "user",
          "type": "address"
        }
      ],
      "name": "checkUser",
      "outputs": [
        {
          "name": "",
          "type": "bool"
        }
      ],
      "payable": false,
      "stateMutability": "view",
      "type": "function"
    },
    {
      "constant": false,
      "inputs": [
        {
          "name": "user",
          "type": "address"
        },
        {
          "name": "userType",
          "type": "uint8"
        }
      ],
      "name": "addUser",
      "outputs": [
        {
          "name": "",
          "type": "bool"
        }
      ],
      "payable": false,
      "stateMutability": "nonpayable",
      "type": "function"
    },
    {
      "constant": true,
      "inputs": [
        {
          "name": "user",
          "type": "address"
        }
      ],
      "name": "getUser",
      "outputs": [
        {
          "name": "",
          "type": "uint8"
        },
        {
          "name": "",
          "type": "uint8"
        }
      ],
      "payable": false,
      "stateMutability": "view",
      "type": "function"
    },
    {
      "constant": true,
      "inputs": [
        {
          "name": "user",
          "type": "address"
        },
        {
          "name": "index",
          "type": "uint256"
        }
      ],
      "name": "getRequest",
      "outputs": [
        {
          "name": "",
          "type": "address"
        },
        {
          "name": "",
          "type": "address"
        },
        {
          "name": "",
          "type": "address"
        },
        {
          "name": "",
          "type": "uint8"
        },
        {
          "name": "",
          "type": "uint8"
        },
        {
          "name": "",
          "type": "string"
        },
        {
          "name": "",
          "type": "uint256"
        }
      ],
      "payable": false,
      "stateMutability": "view",
      "type": "function"
    },
    {
      "constant": false,
      "inputs": [
        {
          "name": "garage",
          "type": "address"
        },
        {
          "name": "status",
          "type": "uint8"
        },
        {
          "name": "desc",
          "type": "string"
        }
      ],
      "name": "requestClaim",
      "outputs": [
        {
          "name": "",
          "type": "int256"
        }
      ],
      "payable": false,
      "stateMutability": "nonpayable",
      "type": "function"
    },
    {
      "constant": false,
      "inputs": [
        {
          "name": "index",
          "type": "uint256"
        },
        {
          "name": "answer",
          "type": "bool"
        },
        {
          "name": "expl",
          "type": "string"
        }
      ],
      "name": "validate",
      "outputs": [
        {
          "name": "",
          "type": "bool"
        }
      ],
      "payable": false,
      "stateMutability": "nonpayable",
      "type": "function"
    },
    {
      "constant": false,
      "inputs": [
        {
          "name": "index",
          "type": "uint256"
        },
        {
          "name": "answer",
          "type": "bool"
        },
        {
          "name": "expl",
          "type": "string"
        }
      ],
      "name": "payClaim",
      "outputs": [],
      "payable": true,
      "stateMutability": "payable",
      "type": "function"
    }
  ],
  "bytecode": "0x608060405234801561001057600080fd5b50336000806101000a81548173ffffffffffffffffffffffffffffffffffffffff021916908373ffffffffffffffffffffffffffffffffffffffff16021790555060018060008060009054906101000a900473ffffffffffffffffffffffffffffffffffffffff1673ffffffffffffffffffffffffffffffffffffffff1673ffffffffffffffffffffffffffffffffffffffff16815260200190815260200160002060000160006101000a81548160ff021916908360ff16021790555060018060008060009054906101000a900473ffffffffffffffffffffffffffffffffffffffff1673ffffffffffffffffffffffffffffffffffffffff1673ffffffffffffffffffffffffffffffffffffffff16815260200190815260200160002060000160016101000a81548160ff021916908360ff1602179055506000809054906101000a900473ffffffffffffffffffffffffffffffffffffffff1660046000600160ff16815260200190815260200160002060006101000a81548173ffffffffffffffffffffffffffffffffffffffff021916908373ffffffffffffffffffffffffffffffffffffffff160217905550612fc0806101cf6000396000f3006080604052600436106100a4576000357c0100000000000000000000000000000000000000000000000000000000900463ffffffff1680631e9d48cf146100a657806341c0e1b51461010157806365c2a3cc146101185780636ef53f92146101af5780636f77926b14610221578063726d0a281461028b57806382da2dfc1461040b5780638792ab7b1461049f5780638da5cb5b146105495780639c3eead9146105a0575b005b3480156100b257600080fd5b506100e7600480360381019080803573ffffffffffffffffffffffffffffffffffffffff169060200190929190505050610608565b604051808215151515815260200191505060405180910390f35b34801561010d57600080fd5b50610116610678565b005b34801561012457600080fd5b5061019560048036038101908080359060200190929190803515159060200190929190803590602001908201803590602001908080601f0160208091040260200160405190810160405280939291908181526020018383808284378201915050505050509192919290505050610709565b604051808215151515815260200191505060405180910390f35b61021f60048036038101908080359060200190929190803515159060200190929190803590602001908201803590602001908080601f0160208091040260200160405190810160405280939291908181526020018383808284378201915050505050509192919290505050611613565b005b34801561022d57600080fd5b50610262600480360381019080803573ffffffffffffffffffffffffffffffffffffffff169060200190929190505050611b9a565b604051808360ff1660ff1681526020018260ff1660ff1681526020019250505060405180910390f35b34801561029757600080fd5b506102d6600480360381019080803573ffffffffffffffffffffffffffffffffffffffff16906020019092919080359060200190929190505050611d15565b604051808873ffffffffffffffffffffffffffffffffffffffff1673ffffffffffffffffffffffffffffffffffffffff1681526020018773ffffffffffffffffffffffffffffffffffffffff1673ffffffffffffffffffffffffffffffffffffffff1681526020018673ffffffffffffffffffffffffffffffffffffffff1673ffffffffffffffffffffffffffffffffffffffff1681526020018560ff1660ff1681526020018460ff1660ff16815260200180602001838152602001828103825284818151815260200191508051906020019080838360005b838110156103ca5780820151818401526020810190506103af565b50505050905090810190601f1680156103f75780820380516001836020036101000a031916815260200191505b509850505050505050505060405180910390f35b34801561041757600080fd5b50610456600480360381019080803573ffffffffffffffffffffffffffffffffffffffff16906020019092919080359060200190929190505050612355565b604051808373ffffffffffffffffffffffffffffffffffffffff1673ffffffffffffffffffffffffffffffffffffffff1681526020018281526020019250505060405180910390f35b3480156104ab57600080fd5b50610533600480360381019080803573ffffffffffffffffffffffffffffffffffffffff169060200190929190803560ff169060200190929190803590602001908201803590602001908080601f01602080910402602001604051908101604052809392919081815260200183838082843782019150505050505091929192905050506123b5565b6040518082815260200191505060405180910390f35b34801561055557600080fd5b5061055e612aef565b604051808273ffffffffffffffffffffffffffffffffffffffff1673ffffffffffffffffffffffffffffffffffffffff16815260200191505060405180910390f35b3480156105ac57600080fd5b506105ee600480360381019080803573ffffffffffffffffffffffffffffffffffffffff169060200190929190803560ff169060200190929190505050612b14565b604051808215151515815260200191505060405180910390f35b600080600160008473ffffffffffffffffffffffffffffffffffffffff1673ffffffffffffffffffffffffffffffffffffffff16815260200190815260200160002060000160009054906101000a900460ff1660ff1614151561066e5760019050610673565b600090505b919050565b6000809054906101000a900473ffffffffffffffffffffffffffffffffffffffff1673ffffffffffffffffffffffffffffffffffffffff163373ffffffffffffffffffffffffffffffffffffffff161415610707576000809054906101000a900473ffffffffffffffffffffffffffffffffffffffff1673ffffffffffffffffffffffffffffffffffffffff16ff5b565b6000806000806000600160003373ffffffffffffffffffffffffffffffffffffffff1673ffffffffffffffffffffffffffffffffffffffff1681526020019081526020016000209350600360003373ffffffffffffffffffffffffffffffffffffffff1673ffffffffffffffffffffffffffffffffffffffff1681526020019081526020016000208881548110151561079e57fe5b90600052602060002090600202019250600260008460000160009054906101000a900473ffffffffffffffffffffffffffffffffffffffff1673ffffffffffffffffffffffffffffffffffffffff1673ffffffffffffffffffffffffffffffffffffffff168152602001908152602001600020836001015481548110151561082257fe5b9060005260206000209060050201915060018460000160009054906101000a900460ff1660ff1611801561086a575060048460000160009054906101000a900460ff1660ff16105b151561087557600080fd5b60028460000160009054906101000a900460ff1660ff161415610f105760018260020160149054906101000a900460ff1660ff1614806108eb575060038260020160149054906101000a900460ff1660ff16101580156108ea575060058260020160149054906101000a900460ff1660ff1611155b5b15610f0b57610996826003018054600181600116156101000203166002900480601f01602080910402602001604051908101604052809291908181526020018280546001816001161561010002031660029004801561098b5780601f106109605761010080835404028352916020019161098b565b820191906000526020600020905b81548152906001019060200180831161096e57829003601f168201915b505050505087612c9e565b8260030190805190602001906109ad929190612e6f565b508615610c395760038260020160149054906101000a900460ff1660ff1614156109f45760048260020160146101000a81548160ff021916908360ff160217905550610c34565b60068260020160146101000a81548160ff021916908360ff160217905550600460008360020160159054906101000a900460ff1660ff1660ff16815260200190815260200160002060009054906101000a900473ffffffffffffffffffffffffffffffffffffffff169050600360008273ffffffffffffffffffffffffffffffffffffffff1673ffffffffffffffffffffffffffffffffffffffff16815260200190815260200160002060408051908101604052808560000160009054906101000a900473ffffffffffffffffffffffffffffffffffffffff1673ffffffffffffffffffffffffffffffffffffffff16815260200185600101548152509080600181540180825580915050906001820390600052602060002090600202016000909192909190915060008201518160000160006101000a81548173ffffffffffffffffffffffffffffffffffffffff021916908373ffffffffffffffffffffffffffffffffffffffff160217905550602082015181600101555050507f555612394b52c5f1c8797c64a1e5a581e7dd3903533eae6164f2053a0fb8fd728360000160009054906101000a900473ffffffffffffffffffffffffffffffffffffffff168983604051808473ffffffffffffffffffffffffffffffffffffffff1673ffffffffffffffffffffffffffffffffffffffff1681526020018381526020018273ffffffffffffffffffffffffffffffffffffffff1673ffffffffffffffffffffffffffffffffffffffff168152602001935050505060405180910390a15b610c58565b60078260020160146101000a81548160ff021916908360ff1602179055505b600360003373ffffffffffffffffffffffffffffffffffffffff1673ffffffffffffffffffffffffffffffffffffffff16815260200190815260200160002060408051908101604052803373ffffffffffffffffffffffffffffffffffffffff1681526020018a8152509080600181540180825580915050906001820390600052602060002090600202016000909192909190915060008201518160000160006101000a81548173ffffffffffffffffffffffffffffffffffffffff021916908373ffffffffffffffffffffffffffffffffffffffff16021790555060208201518160010155505050600360003373ffffffffffffffffffffffffffffffffffffffff1673ffffffffffffffffffffffffffffffffffffffff1681526020019081526020016000206001600360003373ffffffffffffffffffffffffffffffffffffffff1673ffffffffffffffffffffffffffffffffffffffff1681526020019081526020016000208054905003815481101515610dd257fe5b906000526020600020906002020192506040805190810160405280600073ffffffffffffffffffffffffffffffffffffffff1681526020016000815250600360003373ffffffffffffffffffffffffffffffffffffffff1673ffffffffffffffffffffffffffffffffffffffff1681526020019081526020016000206001600360003373ffffffffffffffffffffffffffffffffffffffff1673ffffffffffffffffffffffffffffffffffffffff1681526020019081526020016000208054905003815481101515610ea057fe5b906000526020600020906002020160008201518160000160006101000a81548173ffffffffffffffffffffffffffffffffffffffff021916908373ffffffffffffffffffffffffffffffffffffffff1602179055506020820151816001015590505060019450611608565b611603565b60038460000160009054906101000a900460ff1660ff16148015610f8357503373ffffffffffffffffffffffffffffffffffffffff168260020160009054906101000a900473ffffffffffffffffffffffffffffffffffffffff1673ffffffffffffffffffffffffffffffffffffffff16145b156116025760028260020160149054906101000a900460ff1660ff161480610fe1575060038260020160149054906101000a900460ff1660ff1610158015610fe0575060058260020160149054906101000a900460ff1660ff1611155b5b156116015761108c826003018054600181600116156101000203166002900480601f0160208091040260200160405190810160405280929190818152602001828054600181600116156101000203166002900480156110815780601f1061105657610100808354040283529160200191611081565b820191906000526020600020905b81548152906001019060200180831161106457829003601f168201915b505050505087612c9e565b8260030190805190602001906110a3929190612e6f565b50861561132f5760038260020160149054906101000a900460ff1660ff1614156110ea5760058260020160146101000a81548160ff021916908360ff16021790555061132a565b60068260020160146101000a81548160ff021916908360ff160217905550600460008360020160159054906101000a900460ff1660ff1660ff16815260200190815260200160002060009054906101000a900473ffffffffffffffffffffffffffffffffffffffff169050600360008273ffffffffffffffffffffffffffffffffffffffff1673ffffffffffffffffffffffffffffffffffffffff16815260200190815260200160002060408051908101604052808560000160009054906101000a900473ffffffffffffffffffffffffffffffffffffffff1673ffffffffffffffffffffffffffffffffffffffff16815260200185600101548152509080600181540180825580915050906001820390600052602060002090600202016000909192909190915060008201518160000160006101000a81548173ffffffffffffffffffffffffffffffffffffffff021916908373ffffffffffffffffffffffffffffffffffffffff160217905550602082015181600101555050507f555612394b52c5f1c8797c64a1e5a581e7dd3903533eae6164f2053a0fb8fd728360000160009054906101000a900473ffffffffffffffffffffffffffffffffffffffff168983604051808473ffffffffffffffffffffffffffffffffffffffff1673ffffffffffffffffffffffffffffffffffffffff1681526020018381526020018273ffffffffffffffffffffffffffffffffffffffff1673ffffffffffffffffffffffffffffffffffffffff168152602001935050505060405180910390a15b61134e565b60088260020160146101000a81548160ff021916908360ff1602179055505b600360003373ffffffffffffffffffffffffffffffffffffffff1673ffffffffffffffffffffffffffffffffffffffff16815260200190815260200160002060408051908101604052803373ffffffffffffffffffffffffffffffffffffffff1681526020018a8152509080600181540180825580915050906001820390600052602060002090600202016000909192909190915060008201518160000160006101000a81548173ffffffffffffffffffffffffffffffffffffffff021916908373ffffffffffffffffffffffffffffffffffffffff16021790555060208201518160010155505050600360003373ffffffffffffffffffffffffffffffffffffffff1673ffffffffffffffffffffffffffffffffffffffff1681526020019081526020016000206001600360003373ffffffffffffffffffffffffffffffffffffffff1673ffffffffffffffffffffffffffffffffffffffff16815260200190815260200160002080549050038154811015156114c857fe5b906000526020600020906002020192506040805190810160405280600073ffffffffffffffffffffffffffffffffffffffff1681526020016000815250600360003373ffffffffffffffffffffffffffffffffffffffff1673ffffffffffffffffffffffffffffffffffffffff1681526020019081526020016000206001600360003373ffffffffffffffffffffffffffffffffffffffff1673ffffffffffffffffffffffffffffffffffffffff168152602001908152602001600020805490500381548110151561159657fe5b906000526020600020906002020160008201518160000160006101000a81548173ffffffffffffffffffffffffffffffffffffffff021916908373ffffffffffffffffffffffffffffffffffffffff1602179055506020820151816001015590505060019450611608565b5b5b600094505b505050509392505050565b600080600080600160003373ffffffffffffffffffffffffffffffffffffffff1673ffffffffffffffffffffffffffffffffffffffff1681526020019081526020016000209350600360003373ffffffffffffffffffffffffffffffffffffffff1673ffffffffffffffffffffffffffffffffffffffff168152602001908152602001600020878154811015156116a657fe5b90600052602060002090600202019250600260008460000160009054906101000a900473ffffffffffffffffffffffffffffffffffffffff1673ffffffffffffffffffffffffffffffffffffffff1673ffffffffffffffffffffffffffffffffffffffff168152602001908152602001600020836001015481548110151561172a57fe5b9060005260206000209060050201915060018460000160009054906101000a900460ff1660ff1614801561178557508160020160159054906101000a900460ff1660ff168460000160019054906101000a900460ff1660ff16145b151561179057600080fd5b611836826003018054600181600116156101000203166002900480601f01602080910402602001604051908101604052809291908181526020018280546001816001161561010002031660029004801561182b5780601f106118005761010080835404028352916020019161182b565b820191906000526020600020905b81548152906001019060200180831161180e57829003601f168201915b505050505086612c9e565b82600301908051906020019061184d929190612e6f565b5085156118eb578160000160009054906101000a900473ffffffffffffffffffffffffffffffffffffffff1673ffffffffffffffffffffffffffffffffffffffff166108fc349081150290604051600060405180830381858888f193505050501580156118be573d6000803e3d6000fd5b50348260040181905550600a8260020160146101000a81548160ff021916908360ff16021790555061190a565b60098260020160146101000a81548160ff021916908360ff1602179055505b600360003373ffffffffffffffffffffffffffffffffffffffff1673ffffffffffffffffffffffffffffffffffffffff1681526020019081526020016000206001600360003373ffffffffffffffffffffffffffffffffffffffff1673ffffffffffffffffffffffffffffffffffffffff168152602001908152602001600020805490500381548110151561199b57fe5b906000526020600020906002020190508092506040805190810160405280600073ffffffffffffffffffffffffffffffffffffffff1681526020016000815250600360003373ffffffffffffffffffffffffffffffffffffffff1673ffffffffffffffffffffffffffffffffffffffff1681526020019081526020016000206001600360003373ffffffffffffffffffffffffffffffffffffffff1673ffffffffffffffffffffffffffffffffffffffff1681526020019081526020016000208054905003815481101515611a6c57fe5b906000526020600020906002020160008201518160000160006101000a81548173ffffffffffffffffffffffffffffffffffffffff021916908373ffffffffffffffffffffffffffffffffffffffff160217905550602082015181600101559050507f42ccd527704326ec7d51567d4d1950895511d2c7d5e1394ad5bad36a4ab250db33348560000160009054906101000a900473ffffffffffffffffffffffffffffffffffffffff16604051808473ffffffffffffffffffffffffffffffffffffffff1673ffffffffffffffffffffffffffffffffffffffff1681526020018381526020018273ffffffffffffffffffffffffffffffffffffffff1673ffffffffffffffffffffffffffffffffffffffff168152602001935050505060405180910390a150505050505050565b600080600080600160008673ffffffffffffffffffffffffffffffffffffffff1673ffffffffffffffffffffffffffffffffffffffff1681526020019081526020016000209150600160003373ffffffffffffffffffffffffffffffffffffffff1673ffffffffffffffffffffffffffffffffffffffff16815260200190815260200160002090508473ffffffffffffffffffffffffffffffffffffffff163373ffffffffffffffffffffffffffffffffffffffff161415611c83578160000160009054906101000a900460ff168260000160019054906101000a900460ff1693509350611d0e565b60018160000160009054906101000a900460ff1660ff16148015611cce57508060000160019054906101000a900460ff1660ff168260000160019054906101000a900460ff1660ff16145b15611d00578160000160009054906101000a900460ff168260000160019054906101000a900460ff1693509350611d0e565b600080819150809050935093505b5050915091565b600080600080600060606000806000600160003373ffffffffffffffffffffffffffffffffffffffff1673ffffffffffffffffffffffffffffffffffffffff1681526020019081526020016000209150600260008c73ffffffffffffffffffffffffffffffffffffffff1673ffffffffffffffffffffffffffffffffffffffff1681526020019081526020016000208a815481101515611db157fe5b9060005260206000209060050201905060018260000160009054906101000a900460ff1660ff16148015611e4a5750600160008c73ffffffffffffffffffffffffffffffffffffffff1673ffffffffffffffffffffffffffffffffffffffff16815260200190815260200160002060000160019054906101000a900460ff1660ff168260000160019054906101000a900460ff1660ff16145b80611e8057503373ffffffffffffffffffffffffffffffffffffffff168b73ffffffffffffffffffffffffffffffffffffffff16145b15611fd0578060000160009054906101000a900473ffffffffffffffffffffffffffffffffffffffff168160010160009054906101000a900473ffffffffffffffffffffffffffffffffffffffff168260020160009054906101000a900473ffffffffffffffffffffffffffffffffffffffff168360020160149054906101000a900460ff168460020160159054906101000a900460ff16856003018660040154818054600181600116156101000203166002900480601f016020809104026020016040519081016040528092919081815260200182805460018160011615610100020316600290048015611fb65780601f10611f8b57610100808354040283529160200191611fb6565b820191906000526020600020905b815481529060010190602001808311611f9957829003601f168201915b505050505091509850985098509850985098509850612347565b60028260000160009054906101000a900460ff1660ff161415612175573373ffffffffffffffffffffffffffffffffffffffff168160010160009054906101000a900473ffffffffffffffffffffffffffffffffffffffff1673ffffffffffffffffffffffffffffffffffffffff161415612170578060000160009054906101000a900473ffffffffffffffffffffffffffffffffffffffff168160010160009054906101000a900473ffffffffffffffffffffffffffffffffffffffff1660008360020160149054906101000a900460ff168460020160159054906101000a900460ff16856003018660040154849450818054600181600116156101000203166002900480601f0160208091040260200160405190810160405280929190818152602001828054600181600116156101000203166002900480156121565780601f1061212b57610100808354040283529160200191612156565b820191906000526020600020905b81548152906001019060200180831161213957829003601f168201915b505050505091509850985098509850985098509850612347565b61230a565b60038260000160009054906101000a900460ff1660ff161415612309573373ffffffffffffffffffffffffffffffffffffffff168160020160009054906101000a900473ffffffffffffffffffffffffffffffffffffffff1673ffffffffffffffffffffffffffffffffffffffff161415612308578060000160009054906101000a900473ffffffffffffffffffffffffffffffffffffffff1660008260020160009054906101000a900473ffffffffffffffffffffffffffffffffffffffff168360020160149054906101000a900460ff166000856003018660040154859550829250818054600181600116156101000203166002900480601f0160208091040260200160405190810160405280929190818152602001828054600181600116156101000203166002900480156122ee5780601f106122c3576101008083540402835291602001916122ee565b820191906000526020600020905b8154815290600101906020018083116122d157829003601f168201915b505050505091509850985098509850985098509850612347565b5b5b6000806000600c60008085955084945083935082925081915060206040519081016040528060008152509080905098509850985098509850985098505b505092959891949750929550565b60036020528160005260406000208181548110151561237057fe5b9060005260206000209060020201600091509150508060000160009054906101000a900473ffffffffffffffffffffffffffffffffffffffff16908060010154905082565b60006002600160003373ffffffffffffffffffffffffffffffffffffffff1673ffffffffffffffffffffffffffffffffffffffff16815260200190815260200160002060000160009054906101000a900460ff1660ff1611151561241857600080fd5b60038360ff16118061242e575060008360ff1611155b1561245b577fffffffffffffffffffffffffffffffffffffffffffffffffffffffffffffffff9050612ae8565b6003600160008673ffffffffffffffffffffffffffffffffffffffff1673ffffffffffffffffffffffffffffffffffffffff16815260200190815260200160002060000160009054906101000a900460ff1660ff16141580156124c2575060018360ff1614155b156124ef577fffffffffffffffffffffffffffffffffffffffffffffffffffffffffffffffff9050612ae8565b600260003373ffffffffffffffffffffffffffffffffffffffff1673ffffffffffffffffffffffffffffffffffffffff16815260200190815260200160002060e0604051908101604052803373ffffffffffffffffffffffffffffffffffffffff168152602001600073ffffffffffffffffffffffffffffffffffffffff1681526020018673ffffffffffffffffffffffffffffffffffffffff1681526020018560ff168152602001600160003373ffffffffffffffffffffffffffffffffffffffff1673ffffffffffffffffffffffffffffffffffffffff16815260200190815260200160002060000160019054906101000a900460ff1660ff16815260200184815260200160008152509080600181540180825580915050906001820390600052602060002090600502016000909192909190915060008201518160000160006101000a81548173ffffffffffffffffffffffffffffffffffffffff021916908373ffffffffffffffffffffffffffffffffffffffff16021790555060208201518160010160006101000a81548173ffffffffffffffffffffffffffffffffffffffff021916908373ffffffffffffffffffffffffffffffffffffffff16021790555060408201518160020160006101000a81548173ffffffffffffffffffffffffffffffffffffffff021916908373ffffffffffffffffffffffffffffffffffffffff16021790555060608201518160020160146101000a81548160ff021916908360ff16021790555060808201518160020160156101000a81548160ff021916908360ff16021790555060a0820151816003019080519060200190612759929190612eef565b5060c082015181600401555050507f555612394b52c5f1c8797c64a1e5a581e7dd3903533eae6164f2053a0fb8fd72336001600260003373ffffffffffffffffffffffffffffffffffffffff1673ffffffffffffffffffffffffffffffffffffffff16815260200190815260200160002080549050036000809054906101000a900473ffffffffffffffffffffffffffffffffffffffff16604051808473ffffffffffffffffffffffffffffffffffffffff1673ffffffffffffffffffffffffffffffffffffffff1681526020018381526020018273ffffffffffffffffffffffffffffffffffffffff1673ffffffffffffffffffffffffffffffffffffffff168152602001935050505060405180910390a160008473ffffffffffffffffffffffffffffffffffffffff16141515612a9f57600360008573ffffffffffffffffffffffffffffffffffffffff1673ffffffffffffffffffffffffffffffffffffffff16815260200190815260200160002060408051908101604052803373ffffffffffffffffffffffffffffffffffffffff1681526020016001600260003373ffffffffffffffffffffffffffffffffffffffff1673ffffffffffffffffffffffffffffffffffffffff16815260200190815260200160002080549050038152509080600181540180825580915050906001820390600052602060002090600202016000909192909190915060008201518160000160006101000a81548173ffffffffffffffffffffffffffffffffffffffff021916908373ffffffffffffffffffffffffffffffffffffffff160217905550602082015181600101555050507f555612394b52c5f1c8797c64a1e5a581e7dd3903533eae6164f2053a0fb8fd72336001600260003373ffffffffffffffffffffffffffffffffffffffff1673ffffffffffffffffffffffffffffffffffffffff168152602001908152602001600020805490500386604051808473ffffffffffffffffffffffffffffffffffffffff1673ffffffffffffffffffffffffffffffffffffffff1681526020018381526020018273ffffffffffffffffffffffffffffffffffffffff1673ffffffffffffffffffffffffffffffffffffffff168152602001935050505060405180910390a15b6001600260003373ffffffffffffffffffffffffffffffffffffffff1673ffffffffffffffffffffffffffffffffffffffff168152602001908152602001600020805490500390505b9392505050565b6000809054906101000a900473ffffffffffffffffffffffffffffffffffffffff1681565b600060018060003373ffffffffffffffffffffffffffffffffffffffff1673ffffffffffffffffffffffffffffffffffffffff16815260200190815260200160002060000160009054906101000a900460ff1660ff16141515612b7657600080fd5b612b7f83610608565b1515612c935781600160008573ffffffffffffffffffffffffffffffffffffffff1673ffffffffffffffffffffffffffffffffffffffff16815260200190815260200160002060000160006101000a81548160ff021916908360ff160217905550600160003373ffffffffffffffffffffffffffffffffffffffff1673ffffffffffffffffffffffffffffffffffffffff16815260200190815260200160002060000160019054906101000a900460ff16600160008573ffffffffffffffffffffffffffffffffffffffff1673ffffffffffffffffffffffffffffffffffffffff16815260200190815260200160002060000160016101000a81548160ff021916908360ff16021790555060019050612c98565b600090505b92915050565b606080606080606060008088955087945084518651016040519080825280601f01601f191660200182016040528015612ce65781602001602082028038833980820191505090505b50935083925060009150600090505b8551811015612da8578581815181101515612d0c57fe5b9060200101517f010000000000000000000000000000000000000000000000000000000000000090047f0100000000000000000000000000000000000000000000000000000000000000028383806001019450815181101515612d6b57fe5b9060200101907effffffffffffffffffffffffffffffffffffffffffffffffffffffffffffff1916908160001a9053508080600101915050612cf5565b600090505b8451811015612e60578481815181101515612dc457fe5b9060200101517f010000000000000000000000000000000000000000000000000000000000000090047f0100000000000000000000000000000000000000000000000000000000000000028383806001019450815181101515612e2357fe5b9060200101907effffffffffffffffffffffffffffffffffffffffffffffffffffffffffffff1916908160001a9053508080600101915050612dad565b82965050505050505092915050565b828054600181600116156101000203166002900490600052602060002090601f016020900481019282601f10612eb057805160ff1916838001178555612ede565b82800160010185558215612ede579182015b82811115612edd578251825591602001919060010190612ec2565b5b509050612eeb9190612f6f565b5090565b828054600181600116156101000203166002900490600052602060002090601f016020900481019282601f10612f3057805160ff1916838001178555612f5e565b82800160010185558215612f5e579182015b82811115612f5d578251825591602001919060010190612f42565b5b509050612f6b9190612f6f565b5090565b612f9191905b80821115612f8d576000816000905550600101612f75565b5090565b905600a165627a7a72305820813ea74c9674405a4ad109126ed12d93251f2b6c7265a095cf4f207842698b770029",
  "source": "pragma solidity ^0.4.24;\ncontract Entity {\n   address public owner;\n\n   struct User {\n      uint8 userType;\n      uint8 instit;\n   }\n   \n   struct Request {\n       address client;\n       address police;\n       address repair;\n       uint8 status;\n       uint8 instit;\n       string desc;\n       uint256 payment;\n   }\n    \n    struct Validation {\n        address client;\n        uint256 index;\n    }\n    \n   // The address of the player => the user info   \n   // so playerInfo[some_address].amountBet gives the amount\n    mapping(address => User) internal userInfo;\n    mapping(address => Request[]) internal requests;\n    mapping(address => Validation[]) public validations;\n    mapping(uint8 => address) internal bank;\n\n   event claimRequest(address initiator, uint256 index, address verifier);\n   event payment(address initiator, uint256 amount, address receiver);\n\n   // Fallback function in case someone sends ether to the contract so it doesn't \n   // get lost and to increase the treasury of this contract that will be distributed in each game\n    function() public payable {}\n\n    constructor() public {\n        owner = msg.sender;\n        userInfo[owner].userType = 1;\n        userInfo[owner].instit = 1;\n        bank[1] = owner;\n    }\n\n    function kill() public {\n        if(msg.sender == owner) selfdestruct(owner);\n    }\n    \n    function checkUser(address user) public constant returns(bool){\n        if(userInfo[user].userType != 0) return true;\n        return false;\n    }\n\n    function addUser(address user, uint8 userType) public returns(bool) {\n        require(userInfo[msg.sender].userType == 1);\n        if( !checkUser(user) ){\n            userInfo[user].userType = userType;\n            userInfo[user].instit = userInfo[msg.sender].instit;\n            return true;\n        }\n        return false;\n    }\n    \n   // Permissions, msg.sender can be tweaked so future improvement\n    function getUser(address user) public view returns(uint8, uint8){\n        User storage tmp = userInfo[user];\n        User storage me = userInfo[msg.sender];\n        if(msg.sender == user) return (tmp.userType, tmp.instit);\n        else if(me.userType == 1 \n            && tmp.instit == me.instit){\n            return (tmp.userType, tmp.instit);\n        }\n        return (0, 0);\n    }\n   \n    function getRequest(address user, uint256 index) public view //FIX\n        returns(address, address, address, uint8, uint8, string, uint256){\n        // Police and Repair -- Bad practice but works here\n        User storage tmp = userInfo[msg.sender];\n        Request storage req = requests[user][index];\n        if((tmp.userType== 1 && tmp.instit==userInfo[user].instit) || user==msg.sender) \n            return (req.client, req.police, req.repair, req.status, req.instit, req.desc, req.payment);\n        else if(tmp.userType == 2){\n            if (req.police == msg.sender) \n                return (req.client, req.police, 0, req.status, req.instit, req.desc, req.payment);\n        }else if(tmp.userType == 3){\n            if (req.repair == msg.sender) \n                return (req.client,0, req.repair, req.status, 0, req.desc, req.payment);\n        }\n        return (0,0,0,12,0,\"\",0);\n    }\n   \n   \n   // Operations\n   // Functions for transactions and requests\n   \n   // Functions for client address\n    function requestClaim(address garage, uint8 status, string desc) public returns(int256){\n        require(userInfo[msg.sender].userType > 2);\n        // make sure status flag is not beyond initiation flags\n        if(status > 3 || status <= 0) return -1;\n        else if(userInfo[garage].userType != 3 && status != 1) return -1;\n        requests[msg.sender].push(Request({\n                                client: msg.sender,\n                                police: 0,\n                                repair: garage,\n                                status: status,\n                                instit: userInfo[msg.sender].instit,\n                                desc: desc,\n                                payment: 0\n        }));\n        emit claimRequest(msg.sender, requests[msg.sender].length - 1, owner);\n        if(garage != 0){\n         validations[garage].push(Validation(msg.sender, requests[msg.sender].length - 1));\n         emit claimRequest(msg.sender, requests[msg.sender].length - 1, garage);\n        }\n        return int256(requests[msg.sender].length - 1);\n    }\n    \n   \n    // Functions for police/repair\n    // 0: init, 1-3: G/P/Both valid required, 4-6: GPB confirmed, 7-9: GPB denied, 10: Paid\n    function validate(uint256 index, bool answer, string expl) public returns(bool){\n        User storage me = userInfo[msg.sender];\n        Validation storage valid = validations[msg.sender][index];\n        Request storage tmp = requests[valid.client][valid.index];\n        require(me.userType > 1 && me.userType < 4);\n        if(me.userType == 2){\n            if(tmp.status == 1 || (tmp.status >= 3 && tmp.status <= 5) ){\n                tmp.desc = concat(tmp.desc, expl);\n                if(answer){\n                    if(tmp.status == 3){\n                        tmp.status = 4;\n                    }else{\n                        tmp.status = 6;\n                        address bk = bank[tmp.instit];\n                        validations[bk].push(Validation(valid.client, valid.index));\n                        emit claimRequest(valid.client, index, bk);\n                    }\n                }else{\n                    tmp.status = 7;\n                }\n                validations[msg.sender].push(Validation(msg.sender, index));\n                valid = validations[msg.sender][(validations[msg.sender].length-1)];\n                validations[msg.sender][(validations[msg.sender].length-1)] = Validation(0,0);\n                return true;\n            }\n        }\n        else if (me.userType == 3 && tmp.repair == msg.sender){\n            if(tmp.status == 2 || (tmp.status >= 3 && tmp.status <= 5) ){\n                tmp.desc = concat(tmp.desc, expl);\n                if(answer){\n                    if(tmp.status == 3){\n                        tmp.status = 5;\n                    }else{\n                        tmp.status = 6;\n                        bk = bank[tmp.instit];\n                        validations[bk].push(Validation(valid.client, valid.index)); \n                        emit claimRequest(valid.client, index, bk);                  \n                    }               \n                }else{\n                    tmp.status = 8;\n                }\n                validations[msg.sender].push(Validation(msg.sender, index));\n                valid = validations[msg.sender][(validations[msg.sender].length-1)];\n                validations[msg.sender][(validations[msg.sender].length-1)] = Validation(0,0);\n                return true;\n            }\n        }\n        return false;\n    }\n   \n    function payClaim(uint256 index, bool answer, string expl) payable public{\n        User storage me = userInfo[msg.sender];\n        Validation storage valid = validations[msg.sender][index];\n        Request storage tmp = requests[valid.client][valid.index];\n        require(me.userType == 1 && me.instit==tmp.instit);\n        tmp.desc = concat(tmp.desc, expl);\n        if(answer){\n            tmp.client.transfer(msg.value);\n            tmp.payment = msg.value;  \n            tmp.status = 10;    \n        }else{\n            tmp.status = 9;\n        }\n        Validation storage validEnd = validations[msg.sender][(validations[msg.sender].length-1)];\n        valid = validEnd;\n        validations[msg.sender][(validations[msg.sender].length-1)] = Validation(0,0);\n        emit payment(msg.sender, msg.value, valid.client);\n    }\n    \n    function concat(string _a, string _b) internal pure returns (string){\n        bytes memory _ba = bytes(_a);\n        bytes memory _bb = bytes(_b);\n        string memory newStr = new string(_ba.length + _bb.length);\n        bytes memory result = bytes(newStr);\n        uint k = 0;\n        for (uint i = 0; i < _ba.length; i++) result[k++] = _ba[i];\n        for (i = 0; i < _bb.length; i++) result[k++] = _bb[i];\n        return string(result);\n    }\n}\n",
  "sourcePath": "/home/wli/Documents/webApp/www/contracts/Entity.sol",
  "compiler": {
    "name": "solc",
    "version": "0.4.24+commit.e67f0147.Emscripten.clang"
  },
  "schemaVersion": "2.0.0",
  "updatedAt": "2018-07-09T14:40:42.775Z"
}