{
  "contractName": "Entity",
  "abi": [
    {
      "constant": true,
      "inputs": [
        {
          "name": "",
          "type": "address"
        },
        {
          "name": "",
          "type": "uint256"
        }
      ],
      "name": "validations",
      "outputs": [
        {
          "name": "client",
          "type": "address"
        },
        {
          "name": "index",
          "type": "uint256"
        }
      ],
      "payable": false,
      "stateMutability": "view",
      "type": "function"
    },
    {
      "constant": true,
      "inputs": [],
      "name": "owner",
      "outputs": [
        {
          "name": "",
          "type": "address"
        }
      ],
      "payable": false,
      "stateMutability": "view",
      "type": "function"
    },
    {
      "inputs": [],
      "payable": false,
      "stateMutability": "nonpayable",
      "type": "constructor"
    },
    {
      "payable": true,
      "stateMutability": "payable",
      "type": "fallback"
    },
    {
      "anonymous": false,
      "inputs": [
        {
          "indexed": false,
          "name": "initiator",
          "type": "address"
        },
        {
          "indexed": false,
          "name": "index",
          "type": "uint256"
        },
        {
          "indexed": false,
          "name": "verifier",
          "type": "address"
        }
      ],
      "name": "claimRequest",
      "type": "event"
    },
    {
      "anonymous": false,
      "inputs": [
        {
          "indexed": false,
          "name": "initiator",
          "type": "address"
        },
        {
          "indexed": false,
          "name": "amount",
          "type": "uint256"
        },
        {
          "indexed": false,
          "name": "receiver",
          "type": "address"
        }
      ],
      "name": "payment",
      "type": "event"
    },
    {
      "constant": false,
      "inputs": [],
      "name": "kill",
      "outputs": [],
      "payable": false,
      "stateMutability": "nonpayable",
      "type": "function"
    },
    {
      "constant": true,
      "inputs": [
        {
          "name": "user",
          "type": "address"
        }
      ],
      "name": "checkUser",
      "outputs": [
        {
          "name": "",
          "type": "bool"
        }
      ],
      "payable": false,
      "stateMutability": "view",
      "type": "function"
    },
    {
      "constant": false,
      "inputs": [
        {
          "name": "user",
          "type": "address"
        },
        {
          "name": "userType",
          "type": "uint8"
        }
      ],
      "name": "addUser",
      "outputs": [
        {
          "name": "",
          "type": "bool"
        }
      ],
      "payable": false,
      "stateMutability": "nonpayable",
      "type": "function"
    },
    {
      "constant": true,
      "inputs": [
        {
          "name": "user",
          "type": "address"
        }
      ],
      "name": "getUser",
      "outputs": [
        {
          "name": "",
          "type": "uint8"
        },
        {
          "name": "",
          "type": "uint8"
        }
      ],
      "payable": false,
      "stateMutability": "view",
      "type": "function"
    },
    {
      "constant": true,
      "inputs": [
        {
          "name": "user",
          "type": "address"
        },
        {
          "name": "index",
          "type": "uint256"
        }
      ],
      "name": "getRequest",
      "outputs": [
        {
          "name": "",
          "type": "uint256"
        },
        {
          "name": "",
          "type": "address"
        },
        {
          "name": "",
          "type": "address"
        },
        {
          "name": "",
          "type": "uint8"
        },
        {
          "name": "",
          "type": "uint8"
        },
        {
          "name": "",
          "type": "string"
        },
        {
          "name": "",
          "type": "uint256"
        }
      ],
      "payable": false,
      "stateMutability": "view",
      "type": "function"
    },
    {
      "constant": false,
      "inputs": [
        {
          "name": "garage",
          "type": "address"
        },
        {
          "name": "status",
          "type": "uint8"
        },
        {
          "name": "desc",
          "type": "string"
        }
      ],
      "name": "requestClaim",
      "outputs": [
        {
          "name": "",
          "type": "bool"
        }
      ],
      "payable": false,
      "stateMutability": "nonpayable",
      "type": "function"
    },
    {
      "constant": false,
      "inputs": [
        {
          "name": "index",
          "type": "uint256"
        },
        {
          "name": "answer",
          "type": "bool"
        },
        {
          "name": "expl",
          "type": "string"
        }
      ],
      "name": "validate",
      "outputs": [
        {
          "name": "",
          "type": "bool"
        }
      ],
      "payable": false,
      "stateMutability": "nonpayable",
      "type": "function"
    },
    {
      "constant": false,
      "inputs": [
        {
          "name": "index",
          "type": "uint256"
        },
        {
          "name": "answer",
          "type": "bool"
        },
        {
          "name": "expl",
          "type": "string"
        }
      ],
      "name": "payClaim",
      "outputs": [],
      "payable": true,
      "stateMutability": "payable",
      "type": "function"
    }
  ],
  "bytecode": "0x608060405234801561001057600080fd5b50336000806101000a81548173ffffffffffffffffffffffffffffffffffffffff021916908373ffffffffffffffffffffffffffffffffffffffff16021790555060018060008060009054906101000a900473ffffffffffffffffffffffffffffffffffffffff1673ffffffffffffffffffffffffffffffffffffffff1673ffffffffffffffffffffffffffffffffffffffff16815260200190815260200160002060000160006101000a81548160ff021916908360ff16021790555060018060008060009054906101000a900473ffffffffffffffffffffffffffffffffffffffff1673ffffffffffffffffffffffffffffffffffffffff1673ffffffffffffffffffffffffffffffffffffffff16815260200190815260200160002060000160016101000a81548160ff021916908360ff1602179055506000809054906101000a900473ffffffffffffffffffffffffffffffffffffffff1660046000600160ff16815260200190815260200160002060006101000a81548173ffffffffffffffffffffffffffffffffffffffff021916908373ffffffffffffffffffffffffffffffffffffffff160217905550612f43806101cf6000396000f3006080604052600436106100a4576000357c0100000000000000000000000000000000000000000000000000000000900463ffffffff1680631e9d48cf146100a657806341c0e1b51461010157806365c2a3cc146101185780636ef53f92146101af5780636f77926b14610221578063726d0a281461028b57806382da2dfc146103df5780638792ab7b146104735780638da5cb5b146105215780639c3eead914610578575b005b3480156100b257600080fd5b506100e7600480360381019080803573ffffffffffffffffffffffffffffffffffffffff1690602001909291905050506105e0565b604051808215151515815260200191505060405180910390f35b34801561010d57600080fd5b50610116610650565b005b34801561012457600080fd5b5061019560048036038101908080359060200190929190803515159060200190929190803590602001908201803590602001908080601f01602080910402602001604051908101604052809392919081815260200183838082843782019150505050505091929192905050506106e1565b604051808215151515815260200191505060405180910390f35b61021f60048036038101908080359060200190929190803515159060200190929190803590602001908201803590602001908080601f016020809104026020016040519081016040528093929190818152602001838380828437820191505050505050919291929050505061163f565b005b34801561022d57600080fd5b50610262600480360381019080803573ffffffffffffffffffffffffffffffffffffffff169060200190929190505050611bc6565b604051808360ff1660ff1681526020018260ff1660ff1681526020019250505060405180910390f35b34801561029757600080fd5b506102d6600480360381019080803573ffffffffffffffffffffffffffffffffffffffff16906020019092919080359060200190929190505050611d41565b604051808881526020018773ffffffffffffffffffffffffffffffffffffffff1673ffffffffffffffffffffffffffffffffffffffff1681526020018673ffffffffffffffffffffffffffffffffffffffff1673ffffffffffffffffffffffffffffffffffffffff1681526020018560ff1660ff1681526020018460ff1660ff16815260200180602001838152602001828103825284818151815260200191508051906020019080838360005b8381101561039e578082015181840152602081019050610383565b50505050905090810190601f1680156103cb5780820380516001836020036101000a031916815260200191505b509850505050505050505060405180910390f35b3480156103eb57600080fd5b5061042a600480360381019080803573ffffffffffffffffffffffffffffffffffffffff169060200190929190803590602001909291905050506123ad565b604051808373ffffffffffffffffffffffffffffffffffffffff1673ffffffffffffffffffffffffffffffffffffffff1681526020018281526020019250505060405180910390f35b34801561047f57600080fd5b50610507600480360381019080803573ffffffffffffffffffffffffffffffffffffffff169060200190929190803560ff169060200190929190803590602001908201803590602001908080601f016020809104026020016040519081016040528093929190818152602001838380828437820191505050505050919291929050505061240d565b604051808215151515815260200191505060405180910390f35b34801561052d57600080fd5b50610536612a72565b604051808273ffffffffffffffffffffffffffffffffffffffff1673ffffffffffffffffffffffffffffffffffffffff16815260200191505060405180910390f35b34801561058457600080fd5b506105c6600480360381019080803573ffffffffffffffffffffffffffffffffffffffff169060200190929190803560ff169060200190929190505050612a97565b604051808215151515815260200191505060405180910390f35b600080600160008473ffffffffffffffffffffffffffffffffffffffff1673ffffffffffffffffffffffffffffffffffffffff16815260200190815260200160002060000160009054906101000a900460ff1660ff16141515610646576001905061064b565b600090505b919050565b6000809054906101000a900473ffffffffffffffffffffffffffffffffffffffff1673ffffffffffffffffffffffffffffffffffffffff163373ffffffffffffffffffffffffffffffffffffffff1614156106df576000809054906101000a900473ffffffffffffffffffffffffffffffffffffffff1673ffffffffffffffffffffffffffffffffffffffff16ff5b565b6000806000806000600160003373ffffffffffffffffffffffffffffffffffffffff1673ffffffffffffffffffffffffffffffffffffffff1681526020019081526020016000209350600360003373ffffffffffffffffffffffffffffffffffffffff1673ffffffffffffffffffffffffffffffffffffffff168152602001908152602001600020805490508810151561077e5760009450611634565b600360003373ffffffffffffffffffffffffffffffffffffffff1673ffffffffffffffffffffffffffffffffffffffff168152602001908152602001600020888154811015156107ca57fe5b90600052602060002090600202019250600260008460000160009054906101000a900473ffffffffffffffffffffffffffffffffffffffff1673ffffffffffffffffffffffffffffffffffffffff1673ffffffffffffffffffffffffffffffffffffffff168152602001908152602001600020836001015481548110151561084e57fe5b9060005260206000209060050201915060018460000160009054906101000a900460ff1660ff16118015610896575060048460000160009054906101000a900460ff1660ff16105b15156108a157600080fd5b60028460000160009054906101000a900460ff1660ff161415610f3c5760018260020160149054906101000a900460ff1660ff161480610917575060038260020160149054906101000a900460ff1660ff1610158015610916575060058260020160149054906101000a900460ff1660ff1611155b5b15610f37576109c2826003018054600181600116156101000203166002900480601f0160208091040260200160405190810160405280929190818152602001828054600181600116156101000203166002900480156109b75780601f1061098c576101008083540402835291602001916109b7565b820191906000526020600020905b81548152906001019060200180831161099a57829003601f168201915b505050505087612c21565b8260030190805190602001906109d9929190612df2565b508615610c655760038260020160149054906101000a900460ff1660ff161415610a205760048260020160146101000a81548160ff021916908360ff160217905550610c60565b60068260020160146101000a81548160ff021916908360ff160217905550600460008360020160159054906101000a900460ff1660ff1660ff16815260200190815260200160002060009054906101000a900473ffffffffffffffffffffffffffffffffffffffff169050600360008273ffffffffffffffffffffffffffffffffffffffff1673ffffffffffffffffffffffffffffffffffffffff16815260200190815260200160002060408051908101604052808560000160009054906101000a900473ffffffffffffffffffffffffffffffffffffffff1673ffffffffffffffffffffffffffffffffffffffff16815260200185600101548152509080600181540180825580915050906001820390600052602060002090600202016000909192909190915060008201518160000160006101000a81548173ffffffffffffffffffffffffffffffffffffffff021916908373ffffffffffffffffffffffffffffffffffffffff160217905550602082015181600101555050507f555612394b52c5f1c8797c64a1e5a581e7dd3903533eae6164f2053a0fb8fd728360000160009054906101000a900473ffffffffffffffffffffffffffffffffffffffff168983604051808473ffffffffffffffffffffffffffffffffffffffff1673ffffffffffffffffffffffffffffffffffffffff1681526020018381526020018273ffffffffffffffffffffffffffffffffffffffff1673ffffffffffffffffffffffffffffffffffffffff168152602001935050505060405180910390a15b610c84565b60078260020160146101000a81548160ff021916908360ff1602179055505b600360003373ffffffffffffffffffffffffffffffffffffffff1673ffffffffffffffffffffffffffffffffffffffff16815260200190815260200160002060408051908101604052803373ffffffffffffffffffffffffffffffffffffffff1681526020018a8152509080600181540180825580915050906001820390600052602060002090600202016000909192909190915060008201518160000160006101000a81548173ffffffffffffffffffffffffffffffffffffffff021916908373ffffffffffffffffffffffffffffffffffffffff16021790555060208201518160010155505050600360003373ffffffffffffffffffffffffffffffffffffffff1673ffffffffffffffffffffffffffffffffffffffff1681526020019081526020016000206001600360003373ffffffffffffffffffffffffffffffffffffffff1673ffffffffffffffffffffffffffffffffffffffff1681526020019081526020016000208054905003815481101515610dfe57fe5b906000526020600020906002020192506040805190810160405280600073ffffffffffffffffffffffffffffffffffffffff1681526020016000815250600360003373ffffffffffffffffffffffffffffffffffffffff1673ffffffffffffffffffffffffffffffffffffffff1681526020019081526020016000206001600360003373ffffffffffffffffffffffffffffffffffffffff1673ffffffffffffffffffffffffffffffffffffffff1681526020019081526020016000208054905003815481101515610ecc57fe5b906000526020600020906002020160008201518160000160006101000a81548173ffffffffffffffffffffffffffffffffffffffff021916908373ffffffffffffffffffffffffffffffffffffffff1602179055506020820151816001015590505060019450611634565b61162f565b60038460000160009054906101000a900460ff1660ff16148015610faf57503373ffffffffffffffffffffffffffffffffffffffff168260020160009054906101000a900473ffffffffffffffffffffffffffffffffffffffff1673ffffffffffffffffffffffffffffffffffffffff16145b1561162e5760028260020160149054906101000a900460ff1660ff16148061100d575060038260020160149054906101000a900460ff1660ff161015801561100c575060058260020160149054906101000a900460ff1660ff1611155b5b1561162d576110b8826003018054600181600116156101000203166002900480601f0160208091040260200160405190810160405280929190818152602001828054600181600116156101000203166002900480156110ad5780601f10611082576101008083540402835291602001916110ad565b820191906000526020600020905b81548152906001019060200180831161109057829003601f168201915b505050505087612c21565b8260030190805190602001906110cf929190612df2565b50861561135b5760038260020160149054906101000a900460ff1660ff1614156111165760058260020160146101000a81548160ff021916908360ff160217905550611356565b60068260020160146101000a81548160ff021916908360ff160217905550600460008360020160159054906101000a900460ff1660ff1660ff16815260200190815260200160002060009054906101000a900473ffffffffffffffffffffffffffffffffffffffff169050600360008273ffffffffffffffffffffffffffffffffffffffff1673ffffffffffffffffffffffffffffffffffffffff16815260200190815260200160002060408051908101604052808560000160009054906101000a900473ffffffffffffffffffffffffffffffffffffffff1673ffffffffffffffffffffffffffffffffffffffff16815260200185600101548152509080600181540180825580915050906001820390600052602060002090600202016000909192909190915060008201518160000160006101000a81548173ffffffffffffffffffffffffffffffffffffffff021916908373ffffffffffffffffffffffffffffffffffffffff160217905550602082015181600101555050507f555612394b52c5f1c8797c64a1e5a581e7dd3903533eae6164f2053a0fb8fd728360000160009054906101000a900473ffffffffffffffffffffffffffffffffffffffff168983604051808473ffffffffffffffffffffffffffffffffffffffff1673ffffffffffffffffffffffffffffffffffffffff1681526020018381526020018273ffffffffffffffffffffffffffffffffffffffff1673ffffffffffffffffffffffffffffffffffffffff168152602001935050505060405180910390a15b61137a565b60088260020160146101000a81548160ff021916908360ff1602179055505b600360003373ffffffffffffffffffffffffffffffffffffffff1673ffffffffffffffffffffffffffffffffffffffff16815260200190815260200160002060408051908101604052803373ffffffffffffffffffffffffffffffffffffffff1681526020018a8152509080600181540180825580915050906001820390600052602060002090600202016000909192909190915060008201518160000160006101000a81548173ffffffffffffffffffffffffffffffffffffffff021916908373ffffffffffffffffffffffffffffffffffffffff16021790555060208201518160010155505050600360003373ffffffffffffffffffffffffffffffffffffffff1673ffffffffffffffffffffffffffffffffffffffff1681526020019081526020016000206001600360003373ffffffffffffffffffffffffffffffffffffffff1673ffffffffffffffffffffffffffffffffffffffff16815260200190815260200160002080549050038154811015156114f457fe5b906000526020600020906002020192506040805190810160405280600073ffffffffffffffffffffffffffffffffffffffff1681526020016000815250600360003373ffffffffffffffffffffffffffffffffffffffff1673ffffffffffffffffffffffffffffffffffffffff1681526020019081526020016000206001600360003373ffffffffffffffffffffffffffffffffffffffff1673ffffffffffffffffffffffffffffffffffffffff16815260200190815260200160002080549050038154811015156115c257fe5b906000526020600020906002020160008201518160000160006101000a81548173ffffffffffffffffffffffffffffffffffffffff021916908373ffffffffffffffffffffffffffffffffffffffff1602179055506020820151816001015590505060019450611634565b5b5b600094505b505050509392505050565b600080600080600160003373ffffffffffffffffffffffffffffffffffffffff1673ffffffffffffffffffffffffffffffffffffffff1681526020019081526020016000209350600360003373ffffffffffffffffffffffffffffffffffffffff1673ffffffffffffffffffffffffffffffffffffffff168152602001908152602001600020878154811015156116d257fe5b90600052602060002090600202019250600260008460000160009054906101000a900473ffffffffffffffffffffffffffffffffffffffff1673ffffffffffffffffffffffffffffffffffffffff1673ffffffffffffffffffffffffffffffffffffffff168152602001908152602001600020836001015481548110151561175657fe5b9060005260206000209060050201915060018460000160009054906101000a900460ff1660ff161480156117b157508160020160159054906101000a900460ff1660ff168460000160019054906101000a900460ff1660ff16145b15156117bc57600080fd5b611862826003018054600181600116156101000203166002900480601f0160208091040260200160405190810160405280929190818152602001828054600181600116156101000203166002900480156118575780601f1061182c57610100808354040283529160200191611857565b820191906000526020600020905b81548152906001019060200180831161183a57829003601f168201915b505050505086612c21565b826003019080519060200190611879929190612df2565b508515611917578260000160009054906101000a900473ffffffffffffffffffffffffffffffffffffffff1673ffffffffffffffffffffffffffffffffffffffff166108fc349081150290604051600060405180830381858888f193505050501580156118ea573d6000803e3d6000fd5b50348260040181905550600a8260020160146101000a81548160ff021916908360ff160217905550611936565b60098260020160146101000a81548160ff021916908360ff1602179055505b600360003373ffffffffffffffffffffffffffffffffffffffff1673ffffffffffffffffffffffffffffffffffffffff1681526020019081526020016000206001600360003373ffffffffffffffffffffffffffffffffffffffff1673ffffffffffffffffffffffffffffffffffffffff16815260200190815260200160002080549050038154811015156119c757fe5b906000526020600020906002020190508092506040805190810160405280600073ffffffffffffffffffffffffffffffffffffffff1681526020016000815250600360003373ffffffffffffffffffffffffffffffffffffffff1673ffffffffffffffffffffffffffffffffffffffff1681526020019081526020016000206001600360003373ffffffffffffffffffffffffffffffffffffffff1673ffffffffffffffffffffffffffffffffffffffff1681526020019081526020016000208054905003815481101515611a9857fe5b906000526020600020906002020160008201518160000160006101000a81548173ffffffffffffffffffffffffffffffffffffffff021916908373ffffffffffffffffffffffffffffffffffffffff160217905550602082015181600101559050507f42ccd527704326ec7d51567d4d1950895511d2c7d5e1394ad5bad36a4ab250db33348560000160009054906101000a900473ffffffffffffffffffffffffffffffffffffffff16604051808473ffffffffffffffffffffffffffffffffffffffff1673ffffffffffffffffffffffffffffffffffffffff1681526020018381526020018273ffffffffffffffffffffffffffffffffffffffff1673ffffffffffffffffffffffffffffffffffffffff168152602001935050505060405180910390a150505050505050565b600080600080600160008673ffffffffffffffffffffffffffffffffffffffff1673ffffffffffffffffffffffffffffffffffffffff1681526020019081526020016000209150600160003373ffffffffffffffffffffffffffffffffffffffff1673ffffffffffffffffffffffffffffffffffffffff16815260200190815260200160002090508473ffffffffffffffffffffffffffffffffffffffff163373ffffffffffffffffffffffffffffffffffffffff161415611caf578160000160009054906101000a900460ff168260000160019054906101000a900460ff1693509350611d3a565b60018160000160009054906101000a900460ff1660ff16148015611cfa57508060000160019054906101000a900460ff1660ff168260000160019054906101000a900460ff1660ff16145b15611d2c578160000160009054906101000a900460ff168260000160019054906101000a900460ff1693509350611d3a565b600080819150809050935093505b5050915091565b600080600080600060606000806000600160003373ffffffffffffffffffffffffffffffffffffffff1673ffffffffffffffffffffffffffffffffffffffff1681526020019081526020016000209150600260008c73ffffffffffffffffffffffffffffffffffffffff1673ffffffffffffffffffffffffffffffffffffffff168152602001908152602001600020805490508a101515611e1d576000806000600c600080859550849450839350829250819150602060405190810160405280600081525090809050985098509850985098509850985061239f565b600260008c73ffffffffffffffffffffffffffffffffffffffff1673ffffffffffffffffffffffffffffffffffffffff1681526020019081526020016000208a815481101515611e6957fe5b9060005260206000209060050201905060018260000160009054906101000a900460ff1660ff16148015611f025750600160008c73ffffffffffffffffffffffffffffffffffffffff1673ffffffffffffffffffffffffffffffffffffffff16815260200190815260200160002060000160019054906101000a900460ff1660ff168260000160019054906101000a900460ff1660ff16145b80611f3857503373ffffffffffffffffffffffffffffffffffffffff168b73ffffffffffffffffffffffffffffffffffffffff16145b156120685780600001548160010160009054906101000a900473ffffffffffffffffffffffffffffffffffffffff168260020160009054906101000a900473ffffffffffffffffffffffffffffffffffffffff168360020160149054906101000a900460ff168460020160159054906101000a900460ff16856003018660040154818054600181600116156101000203166002900480601f01602080910402602001604051908101604052809291908181526020018280546001816001161561010002031660029004801561204e5780601f106120235761010080835404028352916020019161204e565b820191906000526020600020905b81548152906001019060200180831161203157829003601f168201915b50505050509150985098509850985098509850985061239f565b60028260000160009054906101000a900460ff1660ff1614156121ed573373ffffffffffffffffffffffffffffffffffffffff168160010160009054906101000a900473ffffffffffffffffffffffffffffffffffffffff1673ffffffffffffffffffffffffffffffffffffffff1614156121e85780600001548160010160009054906101000a900473ffffffffffffffffffffffffffffffffffffffff1660008360020160149054906101000a900460ff168460020160159054906101000a900460ff16856003018660040154849450818054600181600116156101000203166002900480601f0160208091040260200160405190810160405280929190818152602001828054600181600116156101000203166002900480156121ce5780601f106121a3576101008083540402835291602001916121ce565b820191906000526020600020905b8154815290600101906020018083116121b157829003601f168201915b50505050509150985098509850985098509850985061239f565b612362565b60038260000160009054906101000a900460ff1660ff161415612361573373ffffffffffffffffffffffffffffffffffffffff168160020160009054906101000a900473ffffffffffffffffffffffffffffffffffffffff1673ffffffffffffffffffffffffffffffffffffffff16141561236057806000015460008260020160009054906101000a900473ffffffffffffffffffffffffffffffffffffffff168360020160149054906101000a900460ff166000856003018660040154859550829250818054600181600116156101000203166002900480601f0160208091040260200160405190810160405280929190818152602001828054600181600116156101000203166002900480156123465780601f1061231b57610100808354040283529160200191612346565b820191906000526020600020905b81548152906001019060200180831161232957829003601f168201915b50505050509150985098509850985098509850985061239f565b5b5b6000806000600c60008085955084945083935082925081915060206040519081016040528060008152509080905098509850985098509850985098505b505092959891949750929550565b6003602052816000526040600020818154811015156123c857fe5b9060005260206000209060020201600091509150508060000160009054906101000a900473ffffffffffffffffffffffffffffffffffffffff16908060010154905082565b60006002600160003373ffffffffffffffffffffffffffffffffffffffff1673ffffffffffffffffffffffffffffffffffffffff16815260200190815260200160002060000160009054906101000a900460ff1660ff1611151561247057600080fd5b60038360ff161180612486575060008360ff1611155b156124945760009050612a6b565b6003600160008673ffffffffffffffffffffffffffffffffffffffff1673ffffffffffffffffffffffffffffffffffffffff16815260200190815260200160002060000160009054906101000a900460ff1660ff16141580156124fb575060018360ff1614155b156125095760009050612a6b565b600260003373ffffffffffffffffffffffffffffffffffffffff1673ffffffffffffffffffffffffffffffffffffffff16815260200190815260200160002060e060405190810160405280428152602001600073ffffffffffffffffffffffffffffffffffffffff1681526020018673ffffffffffffffffffffffffffffffffffffffff1681526020018560ff168152602001600160003373ffffffffffffffffffffffffffffffffffffffff1673ffffffffffffffffffffffffffffffffffffffff16815260200190815260200160002060000160019054906101000a900460ff1660ff1681526020018481526020016000815250908060018154018082558091505090600182039060005260206000209060050201600090919290919091506000820151816000015560208201518160010160006101000a81548173ffffffffffffffffffffffffffffffffffffffff021916908373ffffffffffffffffffffffffffffffffffffffff16021790555060408201518160020160006101000a81548173ffffffffffffffffffffffffffffffffffffffff021916908373ffffffffffffffffffffffffffffffffffffffff16021790555060608201518160020160146101000a81548160ff021916908360ff16021790555060808201518160020160156101000a81548160ff021916908360ff16021790555060a0820151816003019080519060200190612720929190612e72565b5060c082015181600401555050507f555612394b52c5f1c8797c64a1e5a581e7dd3903533eae6164f2053a0fb8fd72336001600260003373ffffffffffffffffffffffffffffffffffffffff1673ffffffffffffffffffffffffffffffffffffffff16815260200190815260200160002080549050036000809054906101000a900473ffffffffffffffffffffffffffffffffffffffff16604051808473ffffffffffffffffffffffffffffffffffffffff1673ffffffffffffffffffffffffffffffffffffffff1681526020018381526020018273ffffffffffffffffffffffffffffffffffffffff1673ffffffffffffffffffffffffffffffffffffffff168152602001935050505060405180910390a160008473ffffffffffffffffffffffffffffffffffffffff16141515612a6657600360008573ffffffffffffffffffffffffffffffffffffffff1673ffffffffffffffffffffffffffffffffffffffff16815260200190815260200160002060408051908101604052803373ffffffffffffffffffffffffffffffffffffffff1681526020016001600260003373ffffffffffffffffffffffffffffffffffffffff1673ffffffffffffffffffffffffffffffffffffffff16815260200190815260200160002080549050038152509080600181540180825580915050906001820390600052602060002090600202016000909192909190915060008201518160000160006101000a81548173ffffffffffffffffffffffffffffffffffffffff021916908373ffffffffffffffffffffffffffffffffffffffff160217905550602082015181600101555050507f555612394b52c5f1c8797c64a1e5a581e7dd3903533eae6164f2053a0fb8fd72336001600260003373ffffffffffffffffffffffffffffffffffffffff1673ffffffffffffffffffffffffffffffffffffffff168152602001908152602001600020805490500386604051808473ffffffffffffffffffffffffffffffffffffffff1673ffffffffffffffffffffffffffffffffffffffff1681526020018381526020018273ffffffffffffffffffffffffffffffffffffffff1673ffffffffffffffffffffffffffffffffffffffff168152602001935050505060405180910390a15b600190505b9392505050565b6000809054906101000a900473ffffffffffffffffffffffffffffffffffffffff1681565b600060018060003373ffffffffffffffffffffffffffffffffffffffff1673ffffffffffffffffffffffffffffffffffffffff16815260200190815260200160002060000160009054906101000a900460ff1660ff16141515612af957600080fd5b612b02836105e0565b1515612c165781600160008573ffffffffffffffffffffffffffffffffffffffff1673ffffffffffffffffffffffffffffffffffffffff16815260200190815260200160002060000160006101000a81548160ff021916908360ff160217905550600160003373ffffffffffffffffffffffffffffffffffffffff1673ffffffffffffffffffffffffffffffffffffffff16815260200190815260200160002060000160019054906101000a900460ff16600160008573ffffffffffffffffffffffffffffffffffffffff1673ffffffffffffffffffffffffffffffffffffffff16815260200190815260200160002060000160016101000a81548160ff021916908360ff16021790555060019050612c1b565b600090505b92915050565b606080606080606060008088955087945084518651016040519080825280601f01601f191660200182016040528015612c695781602001602082028038833980820191505090505b50935083925060009150600090505b8551811015612d2b578581815181101515612c8f57fe5b9060200101517f010000000000000000000000000000000000000000000000000000000000000090047f0100000000000000000000000000000000000000000000000000000000000000028383806001019450815181101515612cee57fe5b9060200101907effffffffffffffffffffffffffffffffffffffffffffffffffffffffffffff1916908160001a9053508080600101915050612c78565b600090505b8451811015612de3578481815181101515612d4757fe5b9060200101517f010000000000000000000000000000000000000000000000000000000000000090047f0100000000000000000000000000000000000000000000000000000000000000028383806001019450815181101515612da657fe5b9060200101907effffffffffffffffffffffffffffffffffffffffffffffffffffffffffffff1916908160001a9053508080600101915050612d30565b82965050505050505092915050565b828054600181600116156101000203166002900490600052602060002090601f016020900481019282601f10612e3357805160ff1916838001178555612e61565b82800160010185558215612e61579182015b82811115612e60578251825591602001919060010190612e45565b5b509050612e6e9190612ef2565b5090565b828054600181600116156101000203166002900490600052602060002090601f016020900481019282601f10612eb357805160ff1916838001178555612ee1565b82800160010185558215612ee1579182015b82811115612ee0578251825591602001919060010190612ec5565b5b509050612eee9190612ef2565b5090565b612f1491905b80821115612f10576000816000905550600101612ef8565b5090565b905600a165627a7a72305820063df81e215697ace4ef1001cbeb7187a3f331e6fa701dc09755b75a51db1a660029",
  "source": "pragma solidity ^0.4.24;\ncontract Entity {\n   address public owner;\n\n   struct User {\n      uint8 userType;\n      uint8 instit;\n   }\n   \n   struct Request {\n       uint256 timestamp;\n       address police;\n       address repair;\n       uint8 status;\n       uint8 instit;\n       string desc;\n       uint256 payment;\n   }\n    \n    struct Validation {\n        address client;\n        uint256 index;\n    }\n    \n   /* The address of the player => the user info   \n    so playerInfo[some_address].amountBet gives the amount */\n    mapping(address => User) internal userInfo;\n    mapping(address => Request[]) internal requests;\n    mapping(address => Validation[]) public validations;\n    mapping(uint8 => address) internal bank;\n\n   event claimRequest(address initiator, uint256 index, address verifier);\n   event payment(address initiator, uint256 amount, address receiver);\n\n   /* Fallback function in case someone sends ether to the contract so it doesn't \n   get lost and to increase the treasury of this contract that will be distributed in each game */\n    function() public payable {}\n\n    constructor() public {\n        owner = msg.sender;\n        userInfo[owner].userType = 1;\n        userInfo[owner].instit = 1;\n        bank[1] = owner;\n    }\n\n    function kill() public {\n        if(msg.sender == owner) selfdestruct(owner);\n    }\n    \n    function checkUser(address user) public constant returns(bool){\n        if(userInfo[user].userType != 0) return true;\n        return false;\n    }\n\n    function addUser(address user, uint8 userType) public returns(bool) {\n        require(userInfo[msg.sender].userType == 1);\n        if( !checkUser(user) ){\n            userInfo[user].userType = userType;\n            userInfo[user].instit = userInfo[msg.sender].instit;\n            return true;\n        }\n        return false;\n    }\n    \n   /* Permissions, msg.sender can be tweaked so future improvement */\n    function getUser(address user) public view returns(uint8, uint8){\n        User storage tmp = userInfo[user];\n        User storage me = userInfo[msg.sender];\n        if(msg.sender == user) return (tmp.userType, tmp.instit);\n        else if(me.userType == 1 \n            && tmp.instit == me.instit){\n            return (tmp.userType, tmp.instit);\n        }\n        return (0, 0);\n    }\n    \n    /* Police and Repair,  Bad practice but works here */\n    function getRequest(address user,uint256 index) public view returns(uint256, address, address, uint8, uint8, string, uint256){\n        User storage tmp = userInfo[msg.sender];\n        if(index >= requests[user].length) return (0,0,0,12,0,\"\",0);\n        Request storage req = requests[user][index];\n        if((tmp.userType== 1 && tmp.instit==userInfo[user].instit) || user==msg.sender) \n            return (req.timestamp, req.police, req.repair, req.status, req.instit, req.desc, req.payment);\n        else if(tmp.userType == 2){\n            if (req.police == msg.sender) \n                return (req.timestamp, req.police, 0, req.status, req.instit, req.desc, req.payment);\n        }else if(tmp.userType == 3){\n            if (req.repair == msg.sender) \n                return (req.timestamp,0, req.repair, req.status, 0, req.desc, req.payment);\n        }\n        return (0,0,0,12,0,\"\",0);\n    }\n   \n\n    function requestClaim(address garage, uint8 status, string desc) public returns(bool){\n        require(userInfo[msg.sender].userType > 2);\n        // make sure status flag is not beyond initiation flags\n        if(status > 3 || status <= 0) return false;\n        else if(userInfo[garage].userType != 3 && status != 1) return false;\n        requests[msg.sender].push(Request({\n                                timestamp: now,\n                                police: 0,\n                                repair: garage,\n                                status: status,\n                                instit: userInfo[msg.sender].instit,\n                                desc: desc,\n                                payment: 0\n        }));\n        emit claimRequest(msg.sender, requests[msg.sender].length - 1, owner);\n        if(garage != 0){\n         validations[garage].push(Validation(msg.sender, requests[msg.sender].length - 1));\n         emit claimRequest(msg.sender, requests[msg.sender].length - 1, garage);\n        }\n        return true;\n    }\n    \n   \n    /* Functions for police/repair\n     0: init, 1-3: G/P/Both valid required, 4-6: GPB confirmed, 7-9: GPB denied, 10: Paid */\n    function validate(uint256 index, bool answer, string expl) public returns(bool){\n        User storage me = userInfo[msg.sender];\n        if(index >= validations[msg.sender].length) return false;\n        Validation storage valid = validations[msg.sender][index];\n        Request storage tmp = requests[valid.client][valid.index];\n        require(me.userType > 1 && me.userType < 4);\n        if(me.userType == 2){\n            if(tmp.status == 1 || (tmp.status >= 3 && tmp.status <= 5) ){\n                tmp.desc = concat(tmp.desc, expl);\n                if(answer){\n                    if(tmp.status == 3){\n                        tmp.status = 4;\n                    }else{\n                        tmp.status = 6;\n                        address bk = bank[tmp.instit];\n                        validations[bk].push(Validation(valid.client, valid.index));\n                        emit claimRequest(valid.client, index, bk);\n                    }\n                }else{\n                    tmp.status = 7;\n                }\n                validations[msg.sender].push(Validation(msg.sender, index));\n                valid = validations[msg.sender][(validations[msg.sender].length-1)];\n                validations[msg.sender][(validations[msg.sender].length-1)] = Validation(0,0);\n                return true;\n            }\n        }\n        else if (me.userType == 3 && tmp.repair == msg.sender){\n            if(tmp.status == 2 || (tmp.status >= 3 && tmp.status <= 5) ){\n                tmp.desc = concat(tmp.desc, expl);\n                if(answer){\n                    if(tmp.status == 3){\n                        tmp.status = 5;\n                    }else{\n                        tmp.status = 6;\n                        bk = bank[tmp.instit];\n                        validations[bk].push(Validation(valid.client, valid.index)); \n                        emit claimRequest(valid.client, index, bk);                  \n                    }               \n                }else{\n                    tmp.status = 8;\n                }\n                validations[msg.sender].push(Validation(msg.sender, index));\n                valid = validations[msg.sender][(validations[msg.sender].length-1)];\n                validations[msg.sender][(validations[msg.sender].length-1)] = Validation(0,0);\n                return true;\n            }\n        }\n        return false;\n    }\n   \n    function payClaim(uint256 index, bool answer, string expl) payable public{\n        User storage me = userInfo[msg.sender];\n        Validation storage valid = validations[msg.sender][index];\n        Request storage tmp = requests[valid.client][valid.index];\n        require(me.userType == 1 && me.instit==tmp.instit);\n        tmp.desc = concat(tmp.desc, expl);\n        if(answer){\n            valid.client.transfer(msg.value);\n            tmp.payment = msg.value;  \n            tmp.status = 10;    \n        }else{\n            tmp.status = 9;\n        }\n        Validation storage validEnd = validations[msg.sender][(validations[msg.sender].length-1)];\n        valid = validEnd;\n        validations[msg.sender][(validations[msg.sender].length-1)] = Validation(0,0);\n        emit payment(msg.sender, msg.value, valid.client);\n    }\n    \n    function concat(string _a, string _b) internal pure returns (string){\n        bytes memory _ba = bytes(_a);\n        bytes memory _bb = bytes(_b);\n        string memory newStr = new string(_ba.length + _bb.length);\n        bytes memory result = bytes(newStr);\n        uint k = 0;\n        for (uint i = 0; i < _ba.length; i++) result[k++] = _ba[i];\n        for (i = 0; i < _bb.length; i++) result[k++] = _bb[i];\n        return string(result);\n    }\n}\n",
  "sourcePath": "/home/wli/Documents/webApp/www/contracts/Entity.sol",
  "compiler": {
    "name": "solc",
    "version": "0.4.24+commit.e67f0147.Emscripten.clang"
  },
  "schemaVersion": "2.0.1",
  "updatedAt": "2018-07-16T14:01:22.943Z"
}