{
  "contractName": "Entity",
  "abi": [
    {
      "constant": true,
      "inputs": [
        {
          "name": "",
          "type": "uint8"
        }
      ],
      "name": "avg",
      "outputs": [
        {
          "name": "",
          "type": "uint256"
        }
      ],
      "payable": false,
      "stateMutability": "view",
      "type": "function"
    },
    {
      "constant": true,
      "inputs": [
        {
          "name": "",
          "type": "address"
        },
        {
          "name": "",
          "type": "uint256"
        }
      ],
      "name": "validations",
      "outputs": [
        {
          "name": "client",
          "type": "address"
        },
        {
          "name": "index",
          "type": "uint256"
        }
      ],
      "payable": false,
      "stateMutability": "view",
      "type": "function"
    },
    {
      "constant": true,
      "inputs": [
        {
          "name": "",
          "type": "uint8"
        }
      ],
      "name": "sd",
      "outputs": [
        {
          "name": "",
          "type": "uint256"
        }
      ],
      "payable": false,
      "stateMutability": "view",
      "type": "function"
    },
    {
      "constant": true,
      "inputs": [],
      "name": "owner",
      "outputs": [
        {
          "name": "",
          "type": "address"
        }
      ],
      "payable": false,
      "stateMutability": "view",
      "type": "function"
    },
    {
      "constant": true,
      "inputs": [],
      "name": "spvm",
      "outputs": [
        {
          "name": "",
          "type": "address"
        }
      ],
      "payable": false,
      "stateMutability": "view",
      "type": "function"
    },
    {
      "inputs": [],
      "payable": false,
      "stateMutability": "nonpayable",
      "type": "constructor"
    },
    {
      "payable": true,
      "stateMutability": "payable",
      "type": "fallback"
    },
    {
      "anonymous": false,
      "inputs": [
        {
          "indexed": false,
          "name": "initiator",
          "type": "address"
        },
        {
          "indexed": false,
          "name": "index",
          "type": "uint256"
        },
        {
          "indexed": false,
          "name": "verifier",
          "type": "address"
        }
      ],
      "name": "claimRequest",
      "type": "event"
    },
    {
      "anonymous": false,
      "inputs": [
        {
          "indexed": false,
          "name": "initiator",
          "type": "address"
        },
        {
          "indexed": false,
          "name": "amount",
          "type": "uint256"
        },
        {
          "indexed": false,
          "name": "receiver",
          "type": "address"
        }
      ],
      "name": "payment",
      "type": "event"
    },
    {
      "constant": true,
      "inputs": [],
      "name": "checkFund",
      "outputs": [
        {
          "name": "",
          "type": "uint256"
        }
      ],
      "payable": false,
      "stateMutability": "view",
      "type": "function"
    },
    {
      "constant": false,
      "inputs": [],
      "name": "kill",
      "outputs": [],
      "payable": false,
      "stateMutability": "nonpayable",
      "type": "function"
    },
    {
      "constant": true,
      "inputs": [
        {
          "name": "user",
          "type": "address"
        }
      ],
      "name": "checkUser",
      "outputs": [
        {
          "name": "",
          "type": "bool"
        }
      ],
      "payable": false,
      "stateMutability": "view",
      "type": "function"
    },
    {
      "constant": false,
      "inputs": [
        {
          "name": "user",
          "type": "address"
        },
        {
          "name": "userType",
          "type": "uint8"
        }
      ],
      "name": "addUser",
      "outputs": [
        {
          "name": "",
          "type": "bool"
        }
      ],
      "payable": false,
      "stateMutability": "nonpayable",
      "type": "function"
    },
    {
      "constant": false,
      "inputs": [
        {
          "name": "user",
          "type": "address"
        },
        {
          "name": "status",
          "type": "uint8"
        }
      ],
      "name": "openStatus",
      "outputs": [
        {
          "name": "",
          "type": "bool"
        }
      ],
      "payable": false,
      "stateMutability": "nonpayable",
      "type": "function"
    },
    {
      "constant": true,
      "inputs": [
        {
          "name": "user",
          "type": "address"
        }
      ],
      "name": "getUser",
      "outputs": [
        {
          "name": "",
          "type": "uint8"
        },
        {
          "name": "",
          "type": "uint8"
        },
        {
          "name": "",
          "type": "uint8"
        }
      ],
      "payable": false,
      "stateMutability": "view",
      "type": "function"
    },
    {
      "constant": true,
      "inputs": [
        {
          "name": "user",
          "type": "address"
        },
        {
          "name": "index",
          "type": "uint256"
        }
      ],
      "name": "getRequest",
      "outputs": [
        {
          "name": "",
          "type": "uint256"
        },
        {
          "name": "",
          "type": "address"
        },
        {
          "name": "",
          "type": "address"
        },
        {
          "name": "",
          "type": "uint8"
        },
        {
          "name": "",
          "type": "uint8"
        },
        {
          "name": "",
          "type": "uint8"
        },
        {
          "name": "",
          "type": "string"
        },
        {
          "name": "",
          "type": "uint256"
        }
      ],
      "payable": false,
      "stateMutability": "view",
      "type": "function"
    },
    {
      "constant": false,
      "inputs": [
        {
          "name": "garage",
          "type": "address"
        },
        {
          "name": "claimType",
          "type": "uint8"
        },
        {
          "name": "status",
          "type": "uint8"
        },
        {
          "name": "desc",
          "type": "string"
        }
      ],
      "name": "requestClaim",
      "outputs": [],
      "payable": false,
      "stateMutability": "nonpayable",
      "type": "function"
    },
    {
      "constant": false,
      "inputs": [
        {
          "name": "index",
          "type": "uint256"
        },
        {
          "name": "answer",
          "type": "bool"
        },
        {
          "name": "expl",
          "type": "string"
        }
      ],
      "name": "validate",
      "outputs": [],
      "payable": false,
      "stateMutability": "nonpayable",
      "type": "function"
    },
    {
      "constant": false,
      "inputs": [
        {
          "name": "index",
          "type": "uint256"
        },
        {
          "name": "answer",
          "type": "bool"
        },
        {
          "name": "expl",
          "type": "string"
        }
      ],
      "name": "payClaim",
      "outputs": [],
      "payable": true,
      "stateMutability": "payable",
      "type": "function"
    },
    {
      "constant": false,
      "inputs": [
        {
          "name": "ctype",
          "type": "uint8"
        },
        {
          "name": "amount",
          "type": "uint256"
        }
      ],
      "name": "setAvg",
      "outputs": [
        {
          "name": "",
          "type": "bool"
        }
      ],
      "payable": false,
      "stateMutability": "nonpayable",
      "type": "function"
    },
    {
      "constant": false,
      "inputs": [
        {
          "name": "ctype",
          "type": "uint8"
        },
        {
          "name": "amount",
          "type": "uint256"
        }
      ],
      "name": "setSd",
      "outputs": [
        {
          "name": "",
          "type": "bool"
        }
      ],
      "payable": false,
      "stateMutability": "nonpayable",
      "type": "function"
    }
  ],
  "bytecode": "0x608060405234801561001057600080fd5b50336000806101000a81548173ffffffffffffffffffffffffffffffffffffffff021916908373ffffffffffffffffffffffffffffffffffffffff1602179055506001600260008060009054906101000a900473ffffffffffffffffffffffffffffffffffffffff1673ffffffffffffffffffffffffffffffffffffffff1673ffffffffffffffffffffffffffffffffffffffff16815260200190815260200160002060000160006101000a81548160ff021916908360ff1602179055506001600260008060009054906101000a900473ffffffffffffffffffffffffffffffffffffffff1673ffffffffffffffffffffffffffffffffffffffff1673ffffffffffffffffffffffffffffffffffffffff16815260200190815260200160002060000160016101000a81548160ff021916908360ff1602179055506000809054906101000a900473ffffffffffffffffffffffffffffffffffffffff1660056000600160ff16815260200190815260200160002060006101000a81548173ffffffffffffffffffffffffffffffffffffffff021916908373ffffffffffffffffffffffffffffffffffffffff16021790555061753060066000600160ff16815260200190815260200160002081905550614e2060076000600160ff1681526020019081526020016000208190555060c860066000600260ff1681526020019081526020016000208190555060c860076000600260ff16815260200190815260200160002081905550614435806102476000396000f3006080604052600436106100f1576000357c0100000000000000000000000000000000000000000000000000000000900463ffffffff168063069b6df2146100f3578063078344111461011e5780631e9d48cf1461016257806341c0e1b5146101bd57806343de5fd4146101d457806365c2a3cc1461023c5780636ef53f92146102bb5780636f77926b1461032d578063726d0a28146103a457806382da2dfc146105055780638d1d430d146105995780638da5cb5b146105dd5780639c3eead914610634578063b9570eac1461069c578063c64936f2146106ee578063c7dc350514610740578063def5903b14610797575b005b3480156100ff57600080fd5b5061010861083a565b6040518082815260200191505060405180910390f35b34801561012a57600080fd5b5061014c600480360381019080803560ff1690602001909291905050506108ba565b6040518082815260200191505060405180910390f35b34801561016e57600080fd5b506101a3600480360381019080803573ffffffffffffffffffffffffffffffffffffffff1690602001909291905050506108d2565b604051808215151515815260200191505060405180910390f35b3480156101c957600080fd5b506101d2610942565b005b3480156101e057600080fd5b50610222600480360381019080803573ffffffffffffffffffffffffffffffffffffffff169060200190929190803560ff1690602001909291905050506109d3565b604051808215151515815260200191505060405180910390f35b34801561024857600080fd5b506102b960048036038101908080359060200190929190803515159060200190929190803590602001908201803590602001908080601f0160208091040260200160405190810160405280939291908181526020018383808284378201915050505050509192919290505050610b59565b005b61032b60048036038101908080359060200190929190803515159060200190929190803590602001908201803590602001908080601f0160208091040260200160405190810160405280939291908181526020018383808284378201915050505050509192919290505050612323565b005b34801561033957600080fd5b5061036e600480360381019080803573ffffffffffffffffffffffffffffffffffffffff1690602001909291905050506128a4565b604051808460ff1660ff1681526020018360ff1660ff1681526020018260ff1660ff168152602001935050505060405180910390f35b3480156103b057600080fd5b506103ef600480360381019080803573ffffffffffffffffffffffffffffffffffffffff16906020019092919080359060200190929190505050612a52565b604051808981526020018873ffffffffffffffffffffffffffffffffffffffff1673ffffffffffffffffffffffffffffffffffffffff1681526020018773ffffffffffffffffffffffffffffffffffffffff1673ffffffffffffffffffffffffffffffffffffffff1681526020018660ff1660ff1681526020018560ff1660ff1681526020018460ff1660ff16815260200180602001838152602001828103825284818151815260200191508051906020019080838360005b838110156104c35780820151818401526020810190506104a8565b50505050905090810190601f1680156104f05780820380516001836020036101000a031916815260200191505b50995050505050505050505060405180910390f35b34801561051157600080fd5b50610550600480360381019080803573ffffffffffffffffffffffffffffffffffffffff16906020019092919080359060200190929190505050613123565b604051808373ffffffffffffffffffffffffffffffffffffffff1673ffffffffffffffffffffffffffffffffffffffff1681526020018281526020019250505060405180910390f35b3480156105a557600080fd5b506105c7600480360381019080803560ff169060200190929190505050613183565b6040518082815260200191505060405180910390f35b3480156105e957600080fd5b506105f261319b565b604051808273ffffffffffffffffffffffffffffffffffffffff1673ffffffffffffffffffffffffffffffffffffffff16815260200191505060405180910390f35b34801561064057600080fd5b50610682600480360381019080803573ffffffffffffffffffffffffffffffffffffffff169060200190929190803560ff1690602001909291905050506131c0565b604051808215151515815260200191505060405180910390f35b3480156106a857600080fd5b506106d4600480360381019080803560ff16906020019092919080359060200190929190505050613462565b604051808215151515815260200191505060405180910390f35b3480156106fa57600080fd5b50610726600480360381019080803560ff169060200190929190803590602001909291905050506134e8565b604051808215151515815260200191505060405180910390f35b34801561074c57600080fd5b5061075561356e565b604051808273ffffffffffffffffffffffffffffffffffffffff1673ffffffffffffffffffffffffffffffffffffffff16815260200191505060405180910390f35b3480156107a357600080fd5b50610838600480360381019080803573ffffffffffffffffffffffffffffffffffffffff169060200190929190803560ff169060200190929190803560ff169060200190929190803590602001908201803590602001908080601f0160208091040260200160405190810160405280939291908181526020018383808284378201915050505050509192919290505050613594565b005b60006001600260003373ffffffffffffffffffffffffffffffffffffffff1673ffffffffffffffffffffffffffffffffffffffff16815260200190815260200160002060000160009054906101000a900460ff1660ff1614151561089d57600080fd5b3073ffffffffffffffffffffffffffffffffffffffff1631905090565b60066020528060005260406000206000915090505481565b600080600260008473ffffffffffffffffffffffffffffffffffffffff1673ffffffffffffffffffffffffffffffffffffffff16815260200190815260200160002060000160009054906101000a900460ff1660ff16141515610938576001905061093d565b600090505b919050565b6000809054906101000a900473ffffffffffffffffffffffffffffffffffffffff1673ffffffffffffffffffffffffffffffffffffffff163373ffffffffffffffffffffffffffffffffffffffff1614156109d1576000809054906101000a900473ffffffffffffffffffffffffffffffffffffffff1673ffffffffffffffffffffffffffffffffffffffff16ff5b565b60003373ffffffffffffffffffffffffffffffffffffffff168373ffffffffffffffffffffffffffffffffffffffff161480610a60575060028060003373ffffffffffffffffffffffffffffffffffffffff1673ffffffffffffffffffffffffffffffffffffffff16815260200190815260200160002060000160009054906101000a900460ff1660ff16145b1515610a6b57600080fd5b60028260ff16141580610a82575060018260ff1614155b15610a905760009050610b53565b60028060003373ffffffffffffffffffffffffffffffffffffffff1673ffffffffffffffffffffffffffffffffffffffff16815260200190815260200160002060000160029054906101000a900460ff1660ff161115610af35760009050610b53565b81600260003373ffffffffffffffffffffffffffffffffffffffff1673ffffffffffffffffffffffffffffffffffffffff16815260200190815260200160002060000160026101000a81548160ff021916908360ff160217905550600190505b92915050565b6000806000806000600260003373ffffffffffffffffffffffffffffffffffffffff1673ffffffffffffffffffffffffffffffffffffffff1681526020019081526020016000209450600460003373ffffffffffffffffffffffffffffffffffffffff1673ffffffffffffffffffffffffffffffffffffffff1681526020019081526020016000208054905088101515610bf257600080fd5b600460003373ffffffffffffffffffffffffffffffffffffffff1673ffffffffffffffffffffffffffffffffffffffff16815260200190815260200160002088815481101515610c3e57fe5b90600052602060002090600202019350600360008560000160009054906101000a900473ffffffffffffffffffffffffffffffffffffffff1673ffffffffffffffffffffffffffffffffffffffff1673ffffffffffffffffffffffffffffffffffffffff1681526020019081526020016000208460010154815481101515610cc257fe5b9060005260206000209060050201925060018560000160009054906101000a900460ff1660ff16118015610d0a575060048560000160009054906101000a900460ff1660ff16105b1515610d1557600080fd5b60028560000160009054906101000a900460ff1660ff1614156117eb5760018360020160159054906101000a900460ff1660ff1614158015610d6c575060038360020160159054906101000a900460ff1660ff1614155b8015610d8d575060058360020160159054906101000a900460ff1660ff1614155b15610d9757600080fd5b610e3d836003018054600181600116156101000203166002900480601f016020809104026020016040519081016040528092919081815260200182805460018160011615610100020316600290048015610e325780601f10610e0757610100808354040283529160200191610e32565b820191906000526020600020905b815481529060010190602001808311610e1557829003601f168201915b505050505087614093565b836003019080519060200190610e54929190614264565b5086156111a95760038360020160159054906101000a900460ff1660ff161415610e9b5760048360020160156101000a81548160ff021916908360ff1602179055506111a4565b600660008460020160149054906101000a900460ff1660ff1660ff1681526020019081526020016000205483600401541015610f63578360000160009054906101000a900473ffffffffffffffffffffffffffffffffffffffff1673ffffffffffffffffffffffffffffffffffffffff166108fc84600401549081150290604051600060405180830381858888f19350505050158015610f3f573d6000803e3d6000fd5b50600a8360020160156101000a81548160ff021916908360ff1602179055506111a3565b60068360020160156101000a81548160ff021916908360ff160217905550600560008460020160169054906101000a900460ff1660ff1660ff16815260200190815260200160002060009054906101000a900473ffffffffffffffffffffffffffffffffffffffff169150600460008373ffffffffffffffffffffffffffffffffffffffff1673ffffffffffffffffffffffffffffffffffffffff16815260200190815260200160002060408051908101604052808660000160009054906101000a900473ffffffffffffffffffffffffffffffffffffffff1673ffffffffffffffffffffffffffffffffffffffff16815260200186600101548152509080600181540180825580915050906001820390600052602060002090600202016000909192909190915060008201518160000160006101000a81548173ffffffffffffffffffffffffffffffffffffffff021916908373ffffffffffffffffffffffffffffffffffffffff160217905550602082015181600101555050507f555612394b52c5f1c8797c64a1e5a581e7dd3903533eae6164f2053a0fb8fd728460000160009054906101000a900473ffffffffffffffffffffffffffffffffffffffff168984604051808473ffffffffffffffffffffffffffffffffffffffff1673ffffffffffffffffffffffffffffffffffffffff1681526020018381526020018273ffffffffffffffffffffffffffffffffffffffff1673ffffffffffffffffffffffffffffffffffffffff168152602001935050505060405180910390a15b5b611626565b60078360020160156101000a81548160ff021916908360ff160217905550600090505b600460008460020160009054906101000a900473ffffffffffffffffffffffffffffffffffffffff1673ffffffffffffffffffffffffffffffffffffffff1673ffffffffffffffffffffffffffffffffffffffff16815260200190815260200160002080549050811015611625578360000160009054906101000a900473ffffffffffffffffffffffffffffffffffffffff1673ffffffffffffffffffffffffffffffffffffffff16600460008560020160009054906101000a900473ffffffffffffffffffffffffffffffffffffffff1673ffffffffffffffffffffffffffffffffffffffff1673ffffffffffffffffffffffffffffffffffffffff168152602001908152602001600020828154811015156112e557fe5b906000526020600020906002020160000160009054906101000a900473ffffffffffffffffffffffffffffffffffffffff1673ffffffffffffffffffffffffffffffffffffffff161480156113be57508360010154600460008560020160009054906101000a900473ffffffffffffffffffffffffffffffffffffffff1673ffffffffffffffffffffffffffffffffffffffff1673ffffffffffffffffffffffffffffffffffffffff168152602001908152602001600020828154811015156113aa57fe5b906000526020600020906002020160010154145b1561161857600460008460020160009054906101000a900473ffffffffffffffffffffffffffffffffffffffff1673ffffffffffffffffffffffffffffffffffffffff1673ffffffffffffffffffffffffffffffffffffffff1681526020019081526020016000206001600460008660020160009054906101000a900473ffffffffffffffffffffffffffffffffffffffff1673ffffffffffffffffffffffffffffffffffffffff1673ffffffffffffffffffffffffffffffffffffffff168152602001908152602001600020805490500381548110151561149c57fe5b9060005260206000209060020201600460008560020160009054906101000a900473ffffffffffffffffffffffffffffffffffffffff1673ffffffffffffffffffffffffffffffffffffffff1673ffffffffffffffffffffffffffffffffffffffff1681526020019081526020016000208281548110151561151a57fe5b90600052602060002090600202016000820160009054906101000a900473ffffffffffffffffffffffffffffffffffffffff168160000160006101000a81548173ffffffffffffffffffffffffffffffffffffffff021916908373ffffffffffffffffffffffffffffffffffffffff16021790555060018201548160010155905050600460008460020160009054906101000a900473ffffffffffffffffffffffffffffffffffffffff1673ffffffffffffffffffffffffffffffffffffffff1673ffffffffffffffffffffffffffffffffffffffff16815260200190815260200160002080548091906001900361161291906142e4565b50611625565b80806001019150506111cc565b5b600460003373ffffffffffffffffffffffffffffffffffffffff1673ffffffffffffffffffffffffffffffffffffffff1681526020019081526020016000206001600460003373ffffffffffffffffffffffffffffffffffffffff1673ffffffffffffffffffffffffffffffffffffffff16815260200190815260200160002080549050038154811015156116b757fe5b9060005260206000209060020201600460003373ffffffffffffffffffffffffffffffffffffffff1673ffffffffffffffffffffffffffffffffffffffff1681526020019081526020016000208981548110151561171157fe5b90600052602060002090600202016000820160009054906101000a900473ffffffffffffffffffffffffffffffffffffffff168160000160006101000a81548173ffffffffffffffffffffffffffffffffffffffff021916908373ffffffffffffffffffffffffffffffffffffffff16021790555060018201548160010155905050600460003373ffffffffffffffffffffffffffffffffffffffff1673ffffffffffffffffffffffffffffffffffffffff1681526020019081526020016000208054809190600190036117e591906142e4565b50612319565b60038560000160009054906101000a900460ff1660ff1614801561185e57503373ffffffffffffffffffffffffffffffffffffffff168360020160009054906101000a900473ffffffffffffffffffffffffffffffffffffffff1673ffffffffffffffffffffffffffffffffffffffff16145b156123185760028360020160159054906101000a900460ff1660ff16148061189a575060038360020160159054906101000a900460ff1660ff16145b806118b9575060048360020160159054906101000a900460ff1660ff16145b1561231257611964836003018054600181600116156101000203166002900480601f0160208091040260200160405190810160405280929190818152602001828054600181600116156101000203166002900480156119595780601f1061192e57610100808354040283529160200191611959565b820191906000526020600020905b81548152906001019060200180831161193c57829003601f168201915b505050505087614093565b83600301908051906020019061197b929190614264565b508615611cd05760038360020160159054906101000a900460ff1660ff1614156119c25760058360020160156101000a81548160ff021916908360ff160217905550611ccb565b60068360020160156101000a81548160ff021916908360ff160217905550600660008460020160149054906101000a900460ff1660ff1660ff1681526020019081526020016000205483600401541015611aa8578360000160009054906101000a900473ffffffffffffffffffffffffffffffffffffffff1673ffffffffffffffffffffffffffffffffffffffff166108fc84600401549081150290604051600060405180830381858888f19350505050158015611a84573d6000803e3d6000fd5b50600a8360020160156101000a81548160ff021916908360ff160217905550611cca565b600560008460020160169054906101000a900460ff1660ff1660ff16815260200190815260200160002060009054906101000a900473ffffffffffffffffffffffffffffffffffffffff169150600460008373ffffffffffffffffffffffffffffffffffffffff1673ffffffffffffffffffffffffffffffffffffffff16815260200190815260200160002060408051908101604052808660000160009054906101000a900473ffffffffffffffffffffffffffffffffffffffff1673ffffffffffffffffffffffffffffffffffffffff16815260200186600101548152509080600181540180825580915050906001820390600052602060002090600202016000909192909190915060008201518160000160006101000a81548173ffffffffffffffffffffffffffffffffffffffff021916908373ffffffffffffffffffffffffffffffffffffffff160217905550602082015181600101555050507f555612394b52c5f1c8797c64a1e5a581e7dd3903533eae6164f2053a0fb8fd728460000160009054906101000a900473ffffffffffffffffffffffffffffffffffffffff168984604051808473ffffffffffffffffffffffffffffffffffffffff1673ffffffffffffffffffffffffffffffffffffffff1681526020018381526020018273ffffffffffffffffffffffffffffffffffffffff1673ffffffffffffffffffffffffffffffffffffffff168152602001935050505060405180910390a15b5b61214d565b60088360020160156101000a81548160ff021916908360ff160217905550600090505b600460008460010160009054906101000a900473ffffffffffffffffffffffffffffffffffffffff1673ffffffffffffffffffffffffffffffffffffffff1673ffffffffffffffffffffffffffffffffffffffff1681526020019081526020016000208054905081101561214c578360000160009054906101000a900473ffffffffffffffffffffffffffffffffffffffff1673ffffffffffffffffffffffffffffffffffffffff16600460008560010160009054906101000a900473ffffffffffffffffffffffffffffffffffffffff1673ffffffffffffffffffffffffffffffffffffffff1673ffffffffffffffffffffffffffffffffffffffff16815260200190815260200160002082815481101515611e0c57fe5b906000526020600020906002020160000160009054906101000a900473ffffffffffffffffffffffffffffffffffffffff1673ffffffffffffffffffffffffffffffffffffffff16148015611ee557508360010154600460008560010160009054906101000a900473ffffffffffffffffffffffffffffffffffffffff1673ffffffffffffffffffffffffffffffffffffffff1673ffffffffffffffffffffffffffffffffffffffff16815260200190815260200160002082815481101515611ed157fe5b906000526020600020906002020160010154145b1561213f57600460008460010160009054906101000a900473ffffffffffffffffffffffffffffffffffffffff1673ffffffffffffffffffffffffffffffffffffffff1673ffffffffffffffffffffffffffffffffffffffff1681526020019081526020016000206001600460008660010160009054906101000a900473ffffffffffffffffffffffffffffffffffffffff1673ffffffffffffffffffffffffffffffffffffffff1673ffffffffffffffffffffffffffffffffffffffff1681526020019081526020016000208054905003815481101515611fc357fe5b9060005260206000209060020201600460008560010160009054906101000a900473ffffffffffffffffffffffffffffffffffffffff1673ffffffffffffffffffffffffffffffffffffffff1673ffffffffffffffffffffffffffffffffffffffff1681526020019081526020016000208281548110151561204157fe5b90600052602060002090600202016000820160009054906101000a900473ffffffffffffffffffffffffffffffffffffffff168160000160006101000a81548173ffffffffffffffffffffffffffffffffffffffff021916908373ffffffffffffffffffffffffffffffffffffffff16021790555060018201548160010155905050600460008460010160009054906101000a900473ffffffffffffffffffffffffffffffffffffffff1673ffffffffffffffffffffffffffffffffffffffff1673ffffffffffffffffffffffffffffffffffffffff16815260200190815260200160002080548091906001900361213991906142e4565b5061214c565b8080600101915050611cf3565b5b600460003373ffffffffffffffffffffffffffffffffffffffff1673ffffffffffffffffffffffffffffffffffffffff1681526020019081526020016000206001600460003373ffffffffffffffffffffffffffffffffffffffff1673ffffffffffffffffffffffffffffffffffffffff16815260200190815260200160002080549050038154811015156121de57fe5b9060005260206000209060020201600460003373ffffffffffffffffffffffffffffffffffffffff1673ffffffffffffffffffffffffffffffffffffffff1681526020019081526020016000208981548110151561223857fe5b90600052602060002090600202016000820160009054906101000a900473ffffffffffffffffffffffffffffffffffffffff168160000160006101000a81548173ffffffffffffffffffffffffffffffffffffffff021916908373ffffffffffffffffffffffffffffffffffffffff16021790555060018201548160010155905050600460003373ffffffffffffffffffffffffffffffffffffffff1673ffffffffffffffffffffffffffffffffffffffff16815260200190815260200160002080548091906001900361230c91906142e4565b50612317565b600080fd5b5b5b5050505050505050565b6000806000600260003373ffffffffffffffffffffffffffffffffffffffff1673ffffffffffffffffffffffffffffffffffffffff1681526020019081526020016000209250600460003373ffffffffffffffffffffffffffffffffffffffff1673ffffffffffffffffffffffffffffffffffffffff168152602001908152602001600020868154811015156123b557fe5b90600052602060002090600202019150600360008360000160009054906101000a900473ffffffffffffffffffffffffffffffffffffffff1673ffffffffffffffffffffffffffffffffffffffff1673ffffffffffffffffffffffffffffffffffffffff168152602001908152602001600020826001015481548110151561243957fe5b9060005260206000209060050201905060018360000160009054906101000a900460ff1660ff1614801561249457508060020160169054906101000a900460ff1660ff168360000160019054906101000a900460ff1660ff16145b151561249f57600080fd5b612545816003018054600181600116156101000203166002900480601f01602080910402602001604051908101604052809291908181526020018280546001816001161561010002031660029004801561253a5780601f1061250f5761010080835404028352916020019161253a565b820191906000526020600020905b81548152906001019060200180831161251d57829003601f168201915b505050505085614093565b81600301908051906020019061255c929190614264565b5084156125fa578160000160009054906101000a900473ffffffffffffffffffffffffffffffffffffffff1673ffffffffffffffffffffffffffffffffffffffff166108fc349081150290604051600060405180830381858888f193505050501580156125cd573d6000803e3d6000fd5b50348160040181905550600a8160020160156101000a81548160ff021916908360ff160217905550612619565b60098160020160156101000a81548160ff021916908360ff1602179055505b600460003373ffffffffffffffffffffffffffffffffffffffff1673ffffffffffffffffffffffffffffffffffffffff1681526020019081526020016000206001600460003373ffffffffffffffffffffffffffffffffffffffff1673ffffffffffffffffffffffffffffffffffffffff16815260200190815260200160002080549050038154811015156126aa57fe5b9060005260206000209060020201600460003373ffffffffffffffffffffffffffffffffffffffff1673ffffffffffffffffffffffffffffffffffffffff1681526020019081526020016000208781548110151561270457fe5b90600052602060002090600202016000820160009054906101000a900473ffffffffffffffffffffffffffffffffffffffff168160000160006101000a81548173ffffffffffffffffffffffffffffffffffffffff021916908373ffffffffffffffffffffffffffffffffffffffff16021790555060018201548160010155905050600460003373ffffffffffffffffffffffffffffffffffffffff1673ffffffffffffffffffffffffffffffffffffffff1681526020019081526020016000208054809190600190036127d891906142e4565b507f42ccd527704326ec7d51567d4d1950895511d2c7d5e1394ad5bad36a4ab250db33348460000160009054906101000a900473ffffffffffffffffffffffffffffffffffffffff16604051808473ffffffffffffffffffffffffffffffffffffffff1673ffffffffffffffffffffffffffffffffffffffff1681526020018381526020018273ffffffffffffffffffffffffffffffffffffffff1673ffffffffffffffffffffffffffffffffffffffff168152602001935050505060405180910390a1505050505050565b6000806000806000600260008773ffffffffffffffffffffffffffffffffffffffff1673ffffffffffffffffffffffffffffffffffffffff1681526020019081526020016000209150600260003373ffffffffffffffffffffffffffffffffffffffff1673ffffffffffffffffffffffffffffffffffffffff16815260200190815260200160002090508573ffffffffffffffffffffffffffffffffffffffff163373ffffffffffffffffffffffffffffffffffffffff1614156129a3578160000160009054906101000a900460ff168260000160019054906101000a900460ff168360000160029054906101000a900460ff16945094509450612a49565b60018160000160009054906101000a900460ff1660ff161480156129ee57508060000160019054906101000a900460ff1660ff168260000160019054906101000a900460ff1660ff16145b15612a34578160000160009054906101000a900460ff168260000160019054906101000a900460ff168360000160029054906101000a900460ff16945094509450612a49565b60008060008292508191508090509450945094505b50509193909250565b60008060008060008060606000806000600260003373ffffffffffffffffffffffffffffffffffffffff1673ffffffffffffffffffffffffffffffffffffffff1681526020019081526020016000209150600360008d73ffffffffffffffffffffffffffffffffffffffff1673ffffffffffffffffffffffffffffffffffffffff168152602001908152602001600020805490508b101515612af357600080fd5b600360008d73ffffffffffffffffffffffffffffffffffffffff1673ffffffffffffffffffffffffffffffffffffffff1681526020019081526020016000208b815481101515612b3f57fe5b906000526020600020906005020190506001600260008e73ffffffffffffffffffffffffffffffffffffffff1673ffffffffffffffffffffffffffffffffffffffff16815260200190815260200160002060000160029054906101000a900460ff1660ff161480612c35575060018260000160009054906101000a900460ff1660ff16148015612c345750600260008d73ffffffffffffffffffffffffffffffffffffffff1673ffffffffffffffffffffffffffffffffffffffff16815260200190815260200160002060000160019054906101000a900460ff1660ff168260000160019054906101000a900460ff1660ff16145b5b80612c6b57503373ffffffffffffffffffffffffffffffffffffffff168c73ffffffffffffffffffffffffffffffffffffffff16145b15612daf5780600001548160010160009054906101000a900473ffffffffffffffffffffffffffffffffffffffff168260020160009054906101000a900473ffffffffffffffffffffffffffffffffffffffff168360020160149054906101000a900460ff168460020160159054906101000a900460ff168560020160169054906101000a900460ff16866003018760040154818054600181600116156101000203166002900480601f016020809104026020016040519081016040528092919081815260200182805460018160011615610100020316600290048015612d935780601f10612d6857610100808354040283529160200191612d93565b820191906000526020600020905b815481529060010190602001808311612d7657829003601f168201915b5050505050915099509950995099509950995099509950613114565b60028260000160009054906101000a900460ff1660ff161415612f48573373ffffffffffffffffffffffffffffffffffffffff168160010160009054906101000a900473ffffffffffffffffffffffffffffffffffffffff1673ffffffffffffffffffffffffffffffffffffffff161415612f435780600001548160010160009054906101000a900473ffffffffffffffffffffffffffffffffffffffff1660008360020160149054906101000a900460ff168460020160159054906101000a900460ff168560020160169054906101000a900460ff16866003018760040154859550818054600181600116156101000203166002900480601f016020809104026020016040519081016040528092919081815260200182805460018160011615610100020316600290048015612f275780601f10612efc57610100808354040283529160200191612f27565b820191906000526020600020905b815481529060010190602001808311612f0a57829003601f168201915b5050505050915099509950995099509950995099509950613114565b6130d1565b60038260000160009054906101000a900460ff1660ff1614156130d0573373ffffffffffffffffffffffffffffffffffffffff168160020160009054906101000a900473ffffffffffffffffffffffffffffffffffffffff1673ffffffffffffffffffffffffffffffffffffffff1614156130cf57806000015460008260020160009054906101000a900473ffffffffffffffffffffffffffffffffffffffff168360020160149054906101000a900460ff168460020160159054906101000a900460ff166000866003018760040154869650829250818054600181600116156101000203166002900480601f0160208091040260200160405190810160405280929190818152602001828054600181600116156101000203166002900480156130b35780601f10613088576101008083540402835291602001916130b3565b820191906000526020600020905b81548152906001019060200180831161309657829003601f168201915b5050505050915099509950995099509950995099509950613114565b5b5b6000806000806000806000869650859550849450839350829250819150602060405190810160405280600081525090809050995099509950995099509950995099505b50509295985092959890939650565b60046020528160005260406000208181548110151561313e57fe5b9060005260206000209060020201600091509150508060000160009054906101000a900473ffffffffffffffffffffffffffffffffffffffff16908060010154905082565b60076020528060005260406000206000915090505481565b6000809054906101000a900473ffffffffffffffffffffffffffffffffffffffff1681565b600060028060003373ffffffffffffffffffffffffffffffffffffffff1673ffffffffffffffffffffffffffffffffffffffff16815260200190815260200160002060000160009054906101000a900460ff1660ff161115151561322357600080fd5b61322c836108d2565b15156134575760028260ff1614156132805782600160006101000a81548173ffffffffffffffffffffffffffffffffffffffff021916908373ffffffffffffffffffffffffffffffffffffffff1602179055505b60038260ff1614156132ed576003600260008573ffffffffffffffffffffffffffffffffffffffff1673ffffffffffffffffffffffffffffffffffffffff16815260200190815260200160002060000160006101000a81548160ff021916908360ff16021790555061344e565b81600260008573ffffffffffffffffffffffffffffffffffffffff1673ffffffffffffffffffffffffffffffffffffffff16815260200190815260200160002060000160006101000a81548160ff021916908360ff160217905550600260003373ffffffffffffffffffffffffffffffffffffffff1673ffffffffffffffffffffffffffffffffffffffff16815260200190815260200160002060000160019054906101000a900460ff16600260008573ffffffffffffffffffffffffffffffffffffffff1673ffffffffffffffffffffffffffffffffffffffff16815260200190815260200160002060000160016101000a81548160ff021916908360ff16021790555060028060008573ffffffffffffffffffffffffffffffffffffffff1673ffffffffffffffffffffffffffffffffffffffff16815260200190815260200160002060000160026101000a81548160ff021916908360ff1602179055505b6001905061345c565b600090505b92915050565b600060028060003373ffffffffffffffffffffffffffffffffffffffff1673ffffffffffffffffffffffffffffffffffffffff16815260200190815260200160002060000160009054906101000a900460ff1660ff161415156134c457600080fd5b81600760008560ff1660ff1681526020019081526020016000208190555092915050565b600060028060003373ffffffffffffffffffffffffffffffffffffffff1673ffffffffffffffffffffffffffffffffffffffff16815260200190815260200160002060000160009054906101000a900460ff1660ff1614151561354a57600080fd5b81600660008560ff1660ff1681526020019081526020016000208190555092915050565b600160009054906101000a900473ffffffffffffffffffffffffffffffffffffffff1681565b600060028060003373ffffffffffffffffffffffffffffffffffffffff1673ffffffffffffffffffffffffffffffffffffffff16815260200190815260200160002060000160009054906101000a900460ff1660ff161115156135f657600080fd5b60038360ff16118061360c575060008360ff1611155b1561361657600080fd5b6003600260008773ffffffffffffffffffffffffffffffffffffffff1673ffffffffffffffffffffffffffffffffffffffff16815260200190815260200160002060000160009054906101000a900460ff1660ff161415801561367d575060018360ff1611155b1561368757600080fd5b600160009054906101000a900473ffffffffffffffffffffffffffffffffffffffff16905060008360ff1614806136c1575060028360ff16145b156136cb57600090505b600360003373ffffffffffffffffffffffffffffffffffffffff1673ffffffffffffffffffffffffffffffffffffffff168152602001908152602001600020610100604051908101604052804281526020018373ffffffffffffffffffffffffffffffffffffffff1681526020018773ffffffffffffffffffffffffffffffffffffffff1681526020018660ff1681526020018560ff168152602001600260003373ffffffffffffffffffffffffffffffffffffffff1673ffffffffffffffffffffffffffffffffffffffff16815260200190815260200160002060000160019054906101000a900460ff1660ff1681526020018481526020016000815250908060018154018082558091505090600182039060005260206000209060050201600090919290919091506000820151816000015560208201518160010160006101000a81548173ffffffffffffffffffffffffffffffffffffffff021916908373ffffffffffffffffffffffffffffffffffffffff16021790555060408201518160020160006101000a81548173ffffffffffffffffffffffffffffffffffffffff021916908373ffffffffffffffffffffffffffffffffffffffff16021790555060608201518160020160146101000a81548160ff021916908360ff16021790555060808201518160020160156101000a81548160ff021916908360ff16021790555060a08201518160020160166101000a81548160ff021916908360ff16021790555060c082015181600301908051906020019061390c929190614316565b5060e082015181600401555050507f555612394b52c5f1c8797c64a1e5a581e7dd3903533eae6164f2053a0fb8fd72336001600360003373ffffffffffffffffffffffffffffffffffffffff1673ffffffffffffffffffffffffffffffffffffffff16815260200190815260200160002080549050036000809054906101000a900473ffffffffffffffffffffffffffffffffffffffff16604051808473ffffffffffffffffffffffffffffffffffffffff1673ffffffffffffffffffffffffffffffffffffffff1681526020018381526020018273ffffffffffffffffffffffffffffffffffffffff1673ffffffffffffffffffffffffffffffffffffffff168152602001935050505060405180910390a160008360ff161415613be2576004600060056000600260003373ffffffffffffffffffffffffffffffffffffffff1673ffffffffffffffffffffffffffffffffffffffff16815260200190815260200160002060000160019054906101000a900460ff1660ff1660ff16815260200190815260200160002060009054906101000a900473ffffffffffffffffffffffffffffffffffffffff1673ffffffffffffffffffffffffffffffffffffffff1673ffffffffffffffffffffffffffffffffffffffff16815260200190815260200160002060408051908101604052803373ffffffffffffffffffffffffffffffffffffffff1681526020016001600360003373ffffffffffffffffffffffffffffffffffffffff1673ffffffffffffffffffffffffffffffffffffffff16815260200190815260200160002080549050038152509080600181540180825580915050906001820390600052602060002090600202016000909192909190915060008201518160000160006101000a81548173ffffffffffffffffffffffffffffffffffffffff021916908373ffffffffffffffffffffffffffffffffffffffff160217905550602082015181600101555050505b60008573ffffffffffffffffffffffffffffffffffffffff16141515613e1557600460008673ffffffffffffffffffffffffffffffffffffffff1673ffffffffffffffffffffffffffffffffffffffff16815260200190815260200160002060408051908101604052803373ffffffffffffffffffffffffffffffffffffffff1681526020016001600360003373ffffffffffffffffffffffffffffffffffffffff1673ffffffffffffffffffffffffffffffffffffffff16815260200190815260200160002080549050038152509080600181540180825580915050906001820390600052602060002090600202016000909192909190915060008201518160000160006101000a81548173ffffffffffffffffffffffffffffffffffffffff021916908373ffffffffffffffffffffffffffffffffffffffff160217905550602082015181600101555050507f555612394b52c5f1c8797c64a1e5a581e7dd3903533eae6164f2053a0fb8fd72336001600360003373ffffffffffffffffffffffffffffffffffffffff1673ffffffffffffffffffffffffffffffffffffffff168152602001908152602001600020805490500387604051808473ffffffffffffffffffffffffffffffffffffffff1673ffffffffffffffffffffffffffffffffffffffff1681526020018381526020018273ffffffffffffffffffffffffffffffffffffffff1673ffffffffffffffffffffffffffffffffffffffff168152602001935050505060405180910390a15b60008173ffffffffffffffffffffffffffffffffffffffff1614151561408c5760046000600160009054906101000a900473ffffffffffffffffffffffffffffffffffffffff1673ffffffffffffffffffffffffffffffffffffffff1673ffffffffffffffffffffffffffffffffffffffff16815260200190815260200160002060408051908101604052803373ffffffffffffffffffffffffffffffffffffffff1681526020016001600360003373ffffffffffffffffffffffffffffffffffffffff1673ffffffffffffffffffffffffffffffffffffffff16815260200190815260200160002080549050038152509080600181540180825580915050906001820390600052602060002090600202016000909192909190915060008201518160000160006101000a81548173ffffffffffffffffffffffffffffffffffffffff021916908373ffffffffffffffffffffffffffffffffffffffff160217905550602082015181600101555050507f555612394b52c5f1c8797c64a1e5a581e7dd3903533eae6164f2053a0fb8fd72336001600360003373ffffffffffffffffffffffffffffffffffffffff1673ffffffffffffffffffffffffffffffffffffffff1681526020019081526020016000208054905003600160009054906101000a900473ffffffffffffffffffffffffffffffffffffffff16604051808473ffffffffffffffffffffffffffffffffffffffff1673ffffffffffffffffffffffffffffffffffffffff1681526020018381526020018273ffffffffffffffffffffffffffffffffffffffff1673ffffffffffffffffffffffffffffffffffffffff168152602001935050505060405180910390a15b5050505050565b606080606080606060008088955087945084518651016040519080825280601f01601f1916602001820160405280156140db5781602001602082028038833980820191505090505b50935083925060009150600090505b855181101561419d57858181518110151561410157fe5b9060200101517f010000000000000000000000000000000000000000000000000000000000000090047f010000000000000000000000000000000000000000000000000000000000000002838380600101945081518110151561416057fe5b9060200101907effffffffffffffffffffffffffffffffffffffffffffffffffffffffffffff1916908160001a90535080806001019150506140ea565b600090505b84518110156142555784818151811015156141b957fe5b9060200101517f010000000000000000000000000000000000000000000000000000000000000090047f010000000000000000000000000000000000000000000000000000000000000002838380600101945081518110151561421857fe5b9060200101907effffffffffffffffffffffffffffffffffffffffffffffffffffffffffffff1916908160001a90535080806001019150506141a2565b82965050505050505092915050565b828054600181600116156101000203166002900490600052602060002090601f016020900481019282601f106142a557805160ff19168380011785556142d3565b828001600101855582156142d3579182015b828111156142d25782518255916020019190600101906142b7565b5b5090506142e09190614396565b5090565b8154818355818111156143115760020281600202836000526020600020918201910161431091906143bb565b5b505050565b828054600181600116156101000203166002900490600052602060002090601f016020900481019282601f1061435757805160ff1916838001178555614385565b82800160010185558215614385579182015b82811115614384578251825591602001919060010190614369565b5b5090506143929190614396565b5090565b6143b891905b808211156143b457600081600090555060010161439c565b5090565b90565b61440691905b8082111561440257600080820160006101000a81549073ffffffffffffffffffffffffffffffffffffffff02191690556001820160009055506002016143c1565b5090565b905600a165627a7a72305820ba1a9a478e5a870623467c23e253e34e5eb140f2d34dd4a699882ed3a23f5d6f0029",
  "source": "pragma solidity ^0.4.24;\ncontract Entity {\n   address public owner;\n   address public spvm;\n\n   struct User {\n      uint8 userType;\n      uint8 instit;\n      uint8 status;\n   }\n   \n   struct Request {\n       uint256 timestamp;\n       address police;\n       address repair;\n       uint8 claimType;\n       uint8 status;\n       uint8 instit;\n       string desc;\n       uint256 payment;\n   }\n    \n    struct Validation {\n        address client;\n        uint256 index;\n    }\n    \n   /* The address of the player => the user info   \n    so playerInfo[some_address].amountBet gives the amount */\n    mapping(address => User) internal userInfo;\n    mapping(address => Request[]) internal requests;\n    mapping(address => Validation[]) public validations;\n    mapping(uint8 => address) internal bank;\n    mapping(uint8 => uint256) public avg;\n    mapping(uint8 => uint256) public sd;\n\n   event claimRequest(address initiator, uint256 index, address verifier);\n   event payment(address initiator, uint256 amount, address receiver);\n\n   /* Fallback function in case someone sends ether to the contract so it doesn't \n   get lost and to increase the treasury of this contract that will be distributed in each game */\n    function() public payable {}\n    \n    function checkFund() public view returns(uint256){\n        require(userInfo[msg.sender].userType == 1);\n        return address(this).balance;\n    }\n    \n    constructor() public {\n        owner = msg.sender;\n        userInfo[owner].userType = 1;\n        userInfo[owner].instit = 1;\n        bank[1] = owner;\n        avg[1] = 30000;\n        sd[1] = 20000;\n        avg[2] = 200;\n        sd[2] = 200;\n    }\n\n    function kill() public {\n        if(msg.sender == owner) selfdestruct(owner);\n    }\n    \n    function checkUser(address user) public view returns(bool){\n        if(userInfo[user].userType != 0) return true;\n        return false;\n    }\n\n    function addUser(address user, uint8 userType) public returns(bool) {\n        require(userInfo[msg.sender].userType <= 2);\n        if( !checkUser(user) ){\n            if(userType == 2) spvm = user;\n            if(userType == 3) userInfo[user].userType = 3;\n            else{\n                userInfo[user].userType = userType;\n                userInfo[user].instit = userInfo[msg.sender].instit;\n                userInfo[user].status = 2;\n            }\n            \n            return true;\n        }\n        return false;\n    }\n    \n    function openStatus(address user, uint8 status) public returns(bool){\n        require(user == msg.sender || userInfo[msg.sender].userType == 2);\n        if( status != 2 || status != 1 ) return false;\n        else if(userInfo[msg.sender].status > 2 ) return false;\n        userInfo[msg.sender].status = status;\n        return true;\n    }\n    \n   /* Permissions, msg.sender can be tweaked so future improvement */\n    function getUser(address user) public view returns(uint8, uint8, uint8){\n        User storage tmp = userInfo[user];\n        User storage me = userInfo[msg.sender];\n        if(msg.sender == user) return (tmp.userType, tmp.instit, tmp.status);\n        else if(me.userType == 1 \n            && tmp.instit == me.instit){\n            return (tmp.userType, tmp.instit, tmp.status);\n        }\n        return (0, 0, 0);\n    }\n    \n    /* Police and Repair,  Bad practice but works here */\n    function getRequest(address user,uint256 index) public view returns(uint256, address, address, uint8,uint8, uint8, string, uint256){\n        User storage tmp = userInfo[msg.sender];\n        if(index >= requests[user].length) revert();\n        Request storage req = requests[user][index];\n        if(userInfo[user].status == 1 || \n            (tmp.userType== 1 && tmp.instit==userInfo[user].instit) || user==msg.sender) \n            return (req.timestamp, req.police, req.repair, req.claimType, req.status, req.instit, req.desc, req.payment);\n        else if(tmp.userType == 2){\n            if (req.police == msg.sender) \n                return (req.timestamp, req.police, 0, req.claimType, req.status, req.instit, req.desc, req.payment);\n        }else if(tmp.userType == 3){\n            if (req.repair == msg.sender) \n                return (req.timestamp,0, req.repair, req.claimType,req.status, 0, req.desc, req.payment);\n        }\n        return(0,0,0,0,0,0,\"\",0);\n    }\n   \n\n    function requestClaim(address garage, uint8 claimType, uint8 status, string desc) public{\n        require(userInfo[msg.sender].userType > 2);\n        // make sure status flag is not beyond initiation flags\n        if(status > 3 || status <= 0) revert();\n        else if(userInfo[garage].userType != 3 && status <= 1) revert();\n        address police = spvm;\n        if(status == 0 || status == 2) police = 0;\n        requests[msg.sender].push(Request({\n                                timestamp: now,\n                                police: police,\n                                repair: garage,\n                                claimType: claimType,\n                                status: status,\n                                instit: userInfo[msg.sender].instit,\n                                desc: desc,\n                                payment: 0\n        }));\n        emit claimRequest(msg.sender, requests[msg.sender].length - 1, owner);\n        if(status == 0) validations[bank[userInfo[msg.sender].instit]].push(Validation(msg.sender, requests[msg.sender].length - 1));\n        if(garage != 0){\n         validations[garage].push(Validation(msg.sender, requests[msg.sender].length - 1));\n         emit claimRequest(msg.sender, requests[msg.sender].length - 1, garage);\n        }\n        if(police != 0){\n         validations[spvm].push(Validation(msg.sender, requests[msg.sender].length - 1));\n         emit claimRequest(msg.sender, requests[msg.sender].length - 1, spvm);\n        }\n    }\n    \n   \n    /* Functions for police/repair\n     0: init, 1-3: G/P/Both valid required, 4-6: GPB confirmed, 7-9: GPB denied, 10: Paid */\n    function validate(uint256 index, bool answer, string expl) public{\n        User storage me = userInfo[msg.sender];\n        if(index >= validations[msg.sender].length) revert();\n        Validation storage valid = validations[msg.sender][index];\n        Request storage tmp = requests[valid.client][valid.index];\n        require(me.userType > 1 && me.userType < 4);\n        if(me.userType == 2){\n            if(tmp.status != 1 && tmp.status != 3 && tmp.status != 5 ) revert();\n            tmp.desc = concat(tmp.desc, expl);\n            if(answer){\n                if(tmp.status == 3){\n                    tmp.status = 4;\n                }else{\n                    if(tmp.payment < avg[tmp.claimType]){\n                        valid.client.transfer(tmp.payment);\n                        tmp.status = 10;\n                    } else{\n                        tmp.status = 6;\n                        address bk = bank[tmp.instit];\n                        validations[bk].push(Validation(valid.client, valid.index));\n                        emit claimRequest(valid.client, index, bk);\n                    }\n                }\n            }else{\n                tmp.status = 7;\n                for(uint256 i=0; i< validations[tmp.repair].length; i++){\n                if(validations[tmp.repair][i].client == valid.client && validations[tmp.repair][i].index == valid.index){\n                    validations[tmp.repair][i] = validations[tmp.repair][(validations[tmp.repair].length-1)];\n                    validations[tmp.repair].length--;\n                    break;\n                }\n                }\n            }\n            validations[msg.sender][index] = validations[msg.sender][validations[msg.sender].length-1];\n            validations[msg.sender].length--;    \n        }\n        else if (me.userType == 3 && tmp.repair == msg.sender){\n            if(tmp.status == 2 || tmp.status == 3 || tmp.status == 4 ){\n                tmp.desc = concat(tmp.desc, expl);\n                if(answer){\n                    if(tmp.status == 3){\n                        tmp.status = 5;\n                    }else{\n                        tmp.status = 6;\n                        if(tmp.payment < avg[tmp.claimType]){\n                            valid.client.transfer(tmp.payment);\n                            tmp.status = 10;\n                        } else{\n                            bk = bank[tmp.instit];\n                            validations[bk].push(Validation(valid.client, valid.index)); \n                            emit claimRequest(valid.client, index, bk);\n                        }\n                    }               \n                }else{\n                    tmp.status = 8;\n                    for(i=0; i< validations[tmp.police].length; i++){\n                if(validations[tmp.police][i].client == valid.client && validations[tmp.police][i].index == valid.index){\n                    validations[tmp.police][i] = validations[tmp.police][validations[tmp.police].length-1];\n                    validations[tmp.police].length--;\n                    break;\n                }\n            }\n                }\n                validations[msg.sender][index] = validations[msg.sender][validations[msg.sender].length-1];\n                validations[msg.sender].length--;\n            } else revert();\n        }\n    }\n   \n    function payClaim(uint256 index, bool answer, string expl) payable public{\n        User storage me = userInfo[msg.sender];\n        Validation storage valid = validations[msg.sender][index];\n        Request storage tmp = requests[valid.client][valid.index];\n        require(me.userType == 1 && me.instit==tmp.instit);\n        tmp.desc = concat(tmp.desc, expl);\n        if(answer){\n            valid.client.transfer(msg.value);\n            tmp.payment = msg.value;  \n            tmp.status = 10;    \n        }else{\n            tmp.status = 9;\n        }\n        validations[msg.sender][index] = validations[msg.sender][validations[msg.sender].length-1];\n        validations[msg.sender].length--;\n        emit payment(msg.sender, msg.value, valid.client);\n    }\n    \n    function setAvg(uint8 ctype, uint256 amount) public returns(bool){\n        require(userInfo[msg.sender].userType == 2);\n        avg[ctype] = amount;\n    }\n    \n    function setSd(uint8 ctype, uint256 amount) public returns(bool){\n        require(userInfo[msg.sender].userType == 2);\n        sd[ctype] = amount;\n    }\n    \n    function concat(string _a, string _b) internal pure returns (string){\n        bytes memory _ba = bytes(_a);\n        bytes memory _bb = bytes(_b);\n        string memory newStr = new string(_ba.length + _bb.length);\n        bytes memory result = bytes(newStr);\n        uint k = 0;\n        for (uint i = 0; i < _ba.length; i++) result[k++] = _ba[i];\n        for (i = 0; i < _bb.length; i++) result[k++] = _bb[i];\n        return string(result);\n    }\n}\n",
  "sourcePath": "/home/wli/Documents/webApp/www/contracts/Entity.sol",
  "compiler": {
    "name": "solc",
    "version": "0.4.24+commit.e67f0147.Emscripten.clang"
  },
  "schemaVersion": "2.0.1",
  "updatedAt": "2018-07-27T18:51:37.097Z"
}