{
  "contractName": "Entity",
  "abi": [
    {
      "constant": true,
      "inputs": [
        {
          "name": "",
          "type": "uint8"
        }
      ],
      "name": "avg",
      "outputs": [
        {
          "name": "",
          "type": "uint256"
        }
      ],
      "payable": false,
      "stateMutability": "view",
      "type": "function"
    },
    {
      "constant": true,
      "inputs": [
        {
          "name": "",
          "type": "address"
        },
        {
          "name": "",
          "type": "uint256"
        }
      ],
      "name": "validations",
      "outputs": [
        {
          "name": "client",
          "type": "address"
        },
        {
          "name": "index",
          "type": "uint256"
        }
      ],
      "payable": false,
      "stateMutability": "view",
      "type": "function"
    },
    {
      "constant": true,
      "inputs": [
        {
          "name": "",
          "type": "uint8"
        }
      ],
      "name": "sd",
      "outputs": [
        {
          "name": "",
          "type": "uint256"
        }
      ],
      "payable": false,
      "stateMutability": "view",
      "type": "function"
    },
    {
      "constant": true,
      "inputs": [],
      "name": "owner",
      "outputs": [
        {
          "name": "",
          "type": "address"
        }
      ],
      "payable": false,
      "stateMutability": "view",
      "type": "function"
    },
    {
      "constant": true,
      "inputs": [],
      "name": "spvm",
      "outputs": [
        {
          "name": "",
          "type": "address"
        }
      ],
      "payable": false,
      "stateMutability": "view",
      "type": "function"
    },
    {
      "inputs": [],
      "payable": false,
      "stateMutability": "nonpayable",
      "type": "constructor"
    },
    {
      "payable": true,
      "stateMutability": "payable",
      "type": "fallback"
    },
    {
      "anonymous": false,
      "inputs": [
        {
          "indexed": false,
          "name": "initiator",
          "type": "address"
        },
        {
          "indexed": false,
          "name": "index",
          "type": "uint256"
        },
        {
          "indexed": false,
          "name": "verifier",
          "type": "address"
        }
      ],
      "name": "claimRequest",
      "type": "event"
    },
    {
      "anonymous": false,
      "inputs": [
        {
          "indexed": false,
          "name": "initiator",
          "type": "address"
        },
        {
          "indexed": false,
          "name": "amount",
          "type": "uint256"
        },
        {
          "indexed": false,
          "name": "receiver",
          "type": "address"
        }
      ],
      "name": "payment",
      "type": "event"
    },
    {
      "constant": true,
      "inputs": [],
      "name": "checkFund",
      "outputs": [
        {
          "name": "",
          "type": "uint256"
        }
      ],
      "payable": false,
      "stateMutability": "view",
      "type": "function"
    },
    {
      "constant": false,
      "inputs": [],
      "name": "kill",
      "outputs": [],
      "payable": false,
      "stateMutability": "nonpayable",
      "type": "function"
    },
    {
      "constant": true,
      "inputs": [
        {
          "name": "user",
          "type": "address"
        }
      ],
      "name": "checkUser",
      "outputs": [
        {
          "name": "",
          "type": "bool"
        }
      ],
      "payable": false,
      "stateMutability": "view",
      "type": "function"
    },
    {
      "constant": false,
      "inputs": [
        {
          "name": "user",
          "type": "address"
        },
        {
          "name": "userType",
          "type": "uint8"
        }
      ],
      "name": "addUser",
      "outputs": [
        {
          "name": "",
          "type": "bool"
        }
      ],
      "payable": false,
      "stateMutability": "nonpayable",
      "type": "function"
    },
    {
      "constant": false,
      "inputs": [
        {
          "name": "user",
          "type": "address"
        },
        {
          "name": "status",
          "type": "uint8"
        }
      ],
      "name": "openStatus",
      "outputs": [
        {
          "name": "",
          "type": "bool"
        }
      ],
      "payable": false,
      "stateMutability": "nonpayable",
      "type": "function"
    },
    {
      "constant": true,
      "inputs": [
        {
          "name": "user",
          "type": "address"
        }
      ],
      "name": "getUser",
      "outputs": [
        {
          "name": "",
          "type": "uint8"
        },
        {
          "name": "",
          "type": "uint8"
        },
        {
          "name": "",
          "type": "uint8"
        }
      ],
      "payable": false,
      "stateMutability": "view",
      "type": "function"
    },
    {
      "constant": true,
      "inputs": [
        {
          "name": "user",
          "type": "address"
        },
        {
          "name": "index",
          "type": "uint256"
        }
      ],
      "name": "getRequest",
      "outputs": [
        {
          "name": "",
          "type": "uint256"
        },
        {
          "name": "",
          "type": "address"
        },
        {
          "name": "",
          "type": "address"
        },
        {
          "name": "",
          "type": "uint8"
        },
        {
          "name": "",
          "type": "uint8"
        },
        {
          "name": "",
          "type": "uint8"
        },
        {
          "name": "",
          "type": "string"
        },
        {
          "name": "",
          "type": "uint256"
        }
      ],
      "payable": false,
      "stateMutability": "view",
      "type": "function"
    },
    {
      "constant": false,
      "inputs": [
        {
          "name": "garage",
          "type": "address"
        },
        {
          "name": "claimType",
          "type": "uint8"
        },
        {
          "name": "status",
          "type": "uint8"
        },
        {
          "name": "desc",
          "type": "string"
        },
        {
          "name": "paym",
          "type": "uint256"
        }
      ],
      "name": "requestClaim",
      "outputs": [],
      "payable": false,
      "stateMutability": "nonpayable",
      "type": "function"
    },
    {
      "constant": false,
      "inputs": [
        {
          "name": "index",
          "type": "uint256"
        },
        {
          "name": "answer",
          "type": "bool"
        },
        {
          "name": "expl",
          "type": "string"
        }
      ],
      "name": "validate",
      "outputs": [],
      "payable": false,
      "stateMutability": "nonpayable",
      "type": "function"
    },
    {
      "constant": false,
      "inputs": [
        {
          "name": "index",
          "type": "uint256"
        },
        {
          "name": "answer",
          "type": "bool"
        },
        {
          "name": "expl",
          "type": "string"
        }
      ],
      "name": "payClaim",
      "outputs": [],
      "payable": true,
      "stateMutability": "payable",
      "type": "function"
    },
    {
      "constant": false,
      "inputs": [
        {
          "name": "ctype",
          "type": "uint8"
        },
        {
          "name": "amount",
          "type": "uint256"
        }
      ],
      "name": "setAvg",
      "outputs": [
        {
          "name": "",
          "type": "bool"
        }
      ],
      "payable": false,
      "stateMutability": "nonpayable",
      "type": "function"
    },
    {
      "constant": false,
      "inputs": [
        {
          "name": "ctype",
          "type": "uint8"
        },
        {
          "name": "amount",
          "type": "uint256"
        }
      ],
      "name": "setSd",
      "outputs": [
        {
          "name": "",
          "type": "bool"
        }
      ],
      "payable": false,
      "stateMutability": "nonpayable",
      "type": "function"
    }
  ],
  "bytecode": "0x608060405234801561001057600080fd5b50336000806101000a81548173ffffffffffffffffffffffffffffffffffffffff021916908373ffffffffffffffffffffffffffffffffffffffff1602179055506001600260008060009054906101000a900473ffffffffffffffffffffffffffffffffffffffff1673ffffffffffffffffffffffffffffffffffffffff1673ffffffffffffffffffffffffffffffffffffffff16815260200190815260200160002060000160006101000a81548160ff021916908360ff1602179055506001600260008060009054906101000a900473ffffffffffffffffffffffffffffffffffffffff1673ffffffffffffffffffffffffffffffffffffffff1673ffffffffffffffffffffffffffffffffffffffff16815260200190815260200160002060000160016101000a81548160ff021916908360ff1602179055506000809054906101000a900473ffffffffffffffffffffffffffffffffffffffff1660056000600160ff16815260200190815260200160002060006101000a81548173ffffffffffffffffffffffffffffffffffffffff021916908373ffffffffffffffffffffffffffffffffffffffff16021790555061753060066000600160ff16815260200190815260200160002081905550614e2060076000600160ff1681526020019081526020016000208190555060c860066000600260ff1681526020019081526020016000208190555060c860076000600260ff168152602001908152602001600020819055506143e3806102476000396000f3006080604052600436106100f1576000357c0100000000000000000000000000000000000000000000000000000000900463ffffffff168063069b6df2146100f3578063078344111461011e5780631e9d48cf1461016257806341c0e1b5146101bd57806343de5fd4146101d457806365c2a3cc1461023c5780636ef53f92146102bb5780636f77926b1461032d578063726d0a28146103a457806382da2dfc146105055780638d1d430d146105995780638da5cb5b146105dd5780639c3eead914610634578063aad2db491461069c578063b9570eac14610749578063c64936f21461079b578063c7dc3505146107ed575b005b3480156100ff57600080fd5b50610108610844565b6040518082815260200191505060405180910390f35b34801561012a57600080fd5b5061014c600480360381019080803560ff1690602001909291905050506108c4565b6040518082815260200191505060405180910390f35b34801561016e57600080fd5b506101a3600480360381019080803573ffffffffffffffffffffffffffffffffffffffff1690602001909291905050506108dc565b604051808215151515815260200191505060405180910390f35b3480156101c957600080fd5b506101d261094c565b005b3480156101e057600080fd5b50610222600480360381019080803573ffffffffffffffffffffffffffffffffffffffff169060200190929190803560ff1690602001909291905050506109dd565b604051808215151515815260200191505060405180910390f35b34801561024857600080fd5b506102b960048036038101908080359060200190929190803515159060200190929190803590602001908201803590602001908080601f0160208091040260200160405190810160405280939291908181526020018383808284378201915050505050509192919290505050610b63565b005b61032b60048036038101908080359060200190929190803515159060200190929190803590602001908201803590602001908080601f0160208091040260200160405190810160405280939291908181526020018383808284378201915050505050509192919290505050612391565b005b34801561033957600080fd5b5061036e600480360381019080803573ffffffffffffffffffffffffffffffffffffffff169060200190929190505050612912565b604051808460ff1660ff1681526020018360ff1660ff1681526020018260ff1660ff168152602001935050505060405180910390f35b3480156103b057600080fd5b506103ef600480360381019080803573ffffffffffffffffffffffffffffffffffffffff1690602001909291908035906020019092919050505061299d565b604051808981526020018873ffffffffffffffffffffffffffffffffffffffff1673ffffffffffffffffffffffffffffffffffffffff1681526020018773ffffffffffffffffffffffffffffffffffffffff1673ffffffffffffffffffffffffffffffffffffffff1681526020018660ff1660ff1681526020018560ff1660ff1681526020018460ff1660ff16815260200180602001838152602001828103825284818151815260200191508051906020019080838360005b838110156104c35780820151818401526020810190506104a8565b50505050905090810190601f1680156104f05780820380516001836020036101000a031916815260200191505b50995050505050505050505060405180910390f35b34801561051157600080fd5b50610550600480360381019080803573ffffffffffffffffffffffffffffffffffffffff1690602001909291908035906020019092919050505061306e565b604051808373ffffffffffffffffffffffffffffffffffffffff1673ffffffffffffffffffffffffffffffffffffffff1681526020018281526020019250505060405180910390f35b3480156105a557600080fd5b506105c7600480360381019080803560ff1690602001909291905050506130ce565b6040518082815260200191505060405180910390f35b3480156105e957600080fd5b506105f26130e6565b604051808273ffffffffffffffffffffffffffffffffffffffff1673ffffffffffffffffffffffffffffffffffffffff16815260200191505060405180910390f35b34801561064057600080fd5b50610682600480360381019080803573ffffffffffffffffffffffffffffffffffffffff169060200190929190803560ff16906020019092919050505061310b565b604051808215151515815260200191505060405180910390f35b3480156106a857600080fd5b50610747600480360381019080803573ffffffffffffffffffffffffffffffffffffffff169060200190929190803560ff169060200190929190803560ff169060200190929190803590602001908201803590602001908080601f01602080910402602001604051908101604052809392919081815260200183838082843782019150505050505091929192908035906020019092919050505061342f565b005b34801561075557600080fd5b50610781600480360381019080803560ff16906020019092919080359060200190929190505050613f0f565b604051808215151515815260200191505060405180910390f35b3480156107a757600080fd5b506107d3600480360381019080803560ff16906020019092919080359060200190929190505050613f95565b604051808215151515815260200191505060405180910390f35b3480156107f957600080fd5b5061080261401b565b604051808273ffffffffffffffffffffffffffffffffffffffff1673ffffffffffffffffffffffffffffffffffffffff16815260200191505060405180910390f35b60006001600260003373ffffffffffffffffffffffffffffffffffffffff1673ffffffffffffffffffffffffffffffffffffffff16815260200190815260200160002060000160009054906101000a900460ff1660ff161415156108a757600080fd5b3073ffffffffffffffffffffffffffffffffffffffff1631905090565b60066020528060005260406000206000915090505481565b600080600260008473ffffffffffffffffffffffffffffffffffffffff1673ffffffffffffffffffffffffffffffffffffffff16815260200190815260200160002060000160009054906101000a900460ff1660ff161415156109425760019050610947565b600090505b919050565b6000809054906101000a900473ffffffffffffffffffffffffffffffffffffffff1673ffffffffffffffffffffffffffffffffffffffff163373ffffffffffffffffffffffffffffffffffffffff1614156109db576000809054906101000a900473ffffffffffffffffffffffffffffffffffffffff1673ffffffffffffffffffffffffffffffffffffffff16ff5b565b60003373ffffffffffffffffffffffffffffffffffffffff168373ffffffffffffffffffffffffffffffffffffffff161480610a6a575060028060003373ffffffffffffffffffffffffffffffffffffffff1673ffffffffffffffffffffffffffffffffffffffff16815260200190815260200160002060000160009054906101000a900460ff1660ff16145b1515610a7557600080fd5b60028260ff16141580610a8c575060018260ff1614155b15610a9a5760009050610b5d565b60028060003373ffffffffffffffffffffffffffffffffffffffff1673ffffffffffffffffffffffffffffffffffffffff16815260200190815260200160002060000160029054906101000a900460ff1660ff161115610afd5760009050610b5d565b81600260003373ffffffffffffffffffffffffffffffffffffffff1673ffffffffffffffffffffffffffffffffffffffff16815260200190815260200160002060000160026101000a81548160ff021916908360ff160217905550600190505b92915050565b6000806000806000600260003373ffffffffffffffffffffffffffffffffffffffff1673ffffffffffffffffffffffffffffffffffffffff1681526020019081526020016000209450600460003373ffffffffffffffffffffffffffffffffffffffff1673ffffffffffffffffffffffffffffffffffffffff1681526020019081526020016000208054905088101515610bfc57600080fd5b600460003373ffffffffffffffffffffffffffffffffffffffff1673ffffffffffffffffffffffffffffffffffffffff16815260200190815260200160002088815481101515610c4857fe5b90600052602060002090600202019350600360008560000160009054906101000a900473ffffffffffffffffffffffffffffffffffffffff1673ffffffffffffffffffffffffffffffffffffffff1673ffffffffffffffffffffffffffffffffffffffff1681526020019081526020016000208460010154815481101515610ccc57fe5b9060005260206000209060050201925060018560000160009054906101000a900460ff1660ff16118015610d14575060048560000160009054906101000a900460ff1660ff16105b1515610d1f57600080fd5b60028560000160009054906101000a900460ff1660ff1614156118275760018360020160159054906101000a900460ff1660ff1614158015610d76575060038360020160159054906101000a900460ff1660ff1614155b8015610d97575060058360020160159054906101000a900460ff1660ff1614155b15610da157600080fd5b610e47836003018054600181600116156101000203166002900480601f016020809104026020016040519081016040528092919081815260200182805460018160011615610100020316600290048015610e3c5780601f10610e1157610100808354040283529160200191610e3c565b820191906000526020600020905b815481529060010190602001808311610e1f57829003601f168201915b505050505087614041565b836003019080519060200190610e5e929190614212565b5086156111e55760038360020160159054906101000a900460ff1660ff161415610ea55760048360020160156101000a81548160ff021916908360ff1602179055506111e0565b60008360020160149054906101000a900460ff1660ff1614158015610ecf57506000836004015414155b8015610f085750600660008460020160149054906101000a900460ff1660ff1660ff168152602001908152602001600020548360040154105b15610f9f578360000160009054906101000a900473ffffffffffffffffffffffffffffffffffffffff1673ffffffffffffffffffffffffffffffffffffffff166108fc84600401549081150290604051600060405180830381858888f19350505050158015610f7b573d6000803e3d6000fd5b50600a8360020160156101000a81548160ff021916908360ff1602179055506111df565b60068360020160156101000a81548160ff021916908360ff160217905550600560008460020160169054906101000a900460ff1660ff1660ff16815260200190815260200160002060009054906101000a900473ffffffffffffffffffffffffffffffffffffffff169150600460008373ffffffffffffffffffffffffffffffffffffffff1673ffffffffffffffffffffffffffffffffffffffff16815260200190815260200160002060408051908101604052808660000160009054906101000a900473ffffffffffffffffffffffffffffffffffffffff1673ffffffffffffffffffffffffffffffffffffffff16815260200186600101548152509080600181540180825580915050906001820390600052602060002090600202016000909192909190915060008201518160000160006101000a81548173ffffffffffffffffffffffffffffffffffffffff021916908373ffffffffffffffffffffffffffffffffffffffff160217905550602082015181600101555050507f555612394b52c5f1c8797c64a1e5a581e7dd3903533eae6164f2053a0fb8fd728460000160009054906101000a900473ffffffffffffffffffffffffffffffffffffffff168984604051808473ffffffffffffffffffffffffffffffffffffffff1673ffffffffffffffffffffffffffffffffffffffff1681526020018381526020018273ffffffffffffffffffffffffffffffffffffffff1673ffffffffffffffffffffffffffffffffffffffff168152602001935050505060405180910390a15b5b611662565b60078360020160156101000a81548160ff021916908360ff160217905550600090505b600460008460020160009054906101000a900473ffffffffffffffffffffffffffffffffffffffff1673ffffffffffffffffffffffffffffffffffffffff1673ffffffffffffffffffffffffffffffffffffffff16815260200190815260200160002080549050811015611661578360000160009054906101000a900473ffffffffffffffffffffffffffffffffffffffff1673ffffffffffffffffffffffffffffffffffffffff16600460008560020160009054906101000a900473ffffffffffffffffffffffffffffffffffffffff1673ffffffffffffffffffffffffffffffffffffffff1673ffffffffffffffffffffffffffffffffffffffff1681526020019081526020016000208281548110151561132157fe5b906000526020600020906002020160000160009054906101000a900473ffffffffffffffffffffffffffffffffffffffff1673ffffffffffffffffffffffffffffffffffffffff161480156113fa57508360010154600460008560020160009054906101000a900473ffffffffffffffffffffffffffffffffffffffff1673ffffffffffffffffffffffffffffffffffffffff1673ffffffffffffffffffffffffffffffffffffffff168152602001908152602001600020828154811015156113e657fe5b906000526020600020906002020160010154145b1561165457600460008460020160009054906101000a900473ffffffffffffffffffffffffffffffffffffffff1673ffffffffffffffffffffffffffffffffffffffff1673ffffffffffffffffffffffffffffffffffffffff1681526020019081526020016000206001600460008660020160009054906101000a900473ffffffffffffffffffffffffffffffffffffffff1673ffffffffffffffffffffffffffffffffffffffff1673ffffffffffffffffffffffffffffffffffffffff16815260200190815260200160002080549050038154811015156114d857fe5b9060005260206000209060020201600460008560020160009054906101000a900473ffffffffffffffffffffffffffffffffffffffff1673ffffffffffffffffffffffffffffffffffffffff1673ffffffffffffffffffffffffffffffffffffffff1681526020019081526020016000208281548110151561155657fe5b90600052602060002090600202016000820160009054906101000a900473ffffffffffffffffffffffffffffffffffffffff168160000160006101000a81548173ffffffffffffffffffffffffffffffffffffffff021916908373ffffffffffffffffffffffffffffffffffffffff16021790555060018201548160010155905050600460008460020160009054906101000a900473ffffffffffffffffffffffffffffffffffffffff1673ffffffffffffffffffffffffffffffffffffffff1673ffffffffffffffffffffffffffffffffffffffff16815260200190815260200160002080548091906001900361164e9190614292565b50611661565b8080600101915050611208565b5b600460003373ffffffffffffffffffffffffffffffffffffffff1673ffffffffffffffffffffffffffffffffffffffff1681526020019081526020016000206001600460003373ffffffffffffffffffffffffffffffffffffffff1673ffffffffffffffffffffffffffffffffffffffff16815260200190815260200160002080549050038154811015156116f357fe5b9060005260206000209060020201600460003373ffffffffffffffffffffffffffffffffffffffff1673ffffffffffffffffffffffffffffffffffffffff1681526020019081526020016000208981548110151561174d57fe5b90600052602060002090600202016000820160009054906101000a900473ffffffffffffffffffffffffffffffffffffffff168160000160006101000a81548173ffffffffffffffffffffffffffffffffffffffff021916908373ffffffffffffffffffffffffffffffffffffffff16021790555060018201548160010155905050600460003373ffffffffffffffffffffffffffffffffffffffff1673ffffffffffffffffffffffffffffffffffffffff1681526020019081526020016000208054809190600190036118219190614292565b50612387565b60038560000160009054906101000a900460ff1660ff1614801561189a57503373ffffffffffffffffffffffffffffffffffffffff168360020160009054906101000a900473ffffffffffffffffffffffffffffffffffffffff1673ffffffffffffffffffffffffffffffffffffffff16145b156123865760028360020160159054906101000a900460ff1660ff1614806118d6575060038360020160159054906101000a900460ff1660ff16145b806118f5575060048360020160159054906101000a900460ff1660ff16145b15612380576119a0836003018054600181600116156101000203166002900480601f0160208091040260200160405190810160405280929190818152602001828054600181600116156101000203166002900480156119955780601f1061196a57610100808354040283529160200191611995565b820191906000526020600020905b81548152906001019060200180831161197857829003601f168201915b505050505087614041565b8360030190805190602001906119b7929190614212565b508615611d3e5760038360020160159054906101000a900460ff1660ff1614156119fe5760058360020160156101000a81548160ff021916908360ff160217905550611d39565b60068360020160156101000a81548160ff021916908360ff16021790555060008360020160149054906101000a900460ff1660ff1614158015611a4657506000836004015414155b8015611a7f5750600660008460020160149054906101000a900460ff1660ff1660ff168152602001908152602001600020548360040154105b15611b16578360000160009054906101000a900473ffffffffffffffffffffffffffffffffffffffff1673ffffffffffffffffffffffffffffffffffffffff166108fc84600401549081150290604051600060405180830381858888f19350505050158015611af2573d6000803e3d6000fd5b50600a8360020160156101000a81548160ff021916908360ff160217905550611d38565b600560008460020160169054906101000a900460ff1660ff1660ff16815260200190815260200160002060009054906101000a900473ffffffffffffffffffffffffffffffffffffffff169150600460008373ffffffffffffffffffffffffffffffffffffffff1673ffffffffffffffffffffffffffffffffffffffff16815260200190815260200160002060408051908101604052808660000160009054906101000a900473ffffffffffffffffffffffffffffffffffffffff1673ffffffffffffffffffffffffffffffffffffffff16815260200186600101548152509080600181540180825580915050906001820390600052602060002090600202016000909192909190915060008201518160000160006101000a81548173ffffffffffffffffffffffffffffffffffffffff021916908373ffffffffffffffffffffffffffffffffffffffff160217905550602082015181600101555050507f555612394b52c5f1c8797c64a1e5a581e7dd3903533eae6164f2053a0fb8fd728460000160009054906101000a900473ffffffffffffffffffffffffffffffffffffffff168984604051808473ffffffffffffffffffffffffffffffffffffffff1673ffffffffffffffffffffffffffffffffffffffff1681526020018381526020018273ffffffffffffffffffffffffffffffffffffffff1673ffffffffffffffffffffffffffffffffffffffff168152602001935050505060405180910390a15b5b6121bb565b60088360020160156101000a81548160ff021916908360ff160217905550600090505b600460008460010160009054906101000a900473ffffffffffffffffffffffffffffffffffffffff1673ffffffffffffffffffffffffffffffffffffffff1673ffffffffffffffffffffffffffffffffffffffff168152602001908152602001600020805490508110156121ba578360000160009054906101000a900473ffffffffffffffffffffffffffffffffffffffff1673ffffffffffffffffffffffffffffffffffffffff16600460008560010160009054906101000a900473ffffffffffffffffffffffffffffffffffffffff1673ffffffffffffffffffffffffffffffffffffffff1673ffffffffffffffffffffffffffffffffffffffff16815260200190815260200160002082815481101515611e7a57fe5b906000526020600020906002020160000160009054906101000a900473ffffffffffffffffffffffffffffffffffffffff1673ffffffffffffffffffffffffffffffffffffffff16148015611f5357508360010154600460008560010160009054906101000a900473ffffffffffffffffffffffffffffffffffffffff1673ffffffffffffffffffffffffffffffffffffffff1673ffffffffffffffffffffffffffffffffffffffff16815260200190815260200160002082815481101515611f3f57fe5b906000526020600020906002020160010154145b156121ad57600460008460010160009054906101000a900473ffffffffffffffffffffffffffffffffffffffff1673ffffffffffffffffffffffffffffffffffffffff1673ffffffffffffffffffffffffffffffffffffffff1681526020019081526020016000206001600460008660010160009054906101000a900473ffffffffffffffffffffffffffffffffffffffff1673ffffffffffffffffffffffffffffffffffffffff1673ffffffffffffffffffffffffffffffffffffffff168152602001908152602001600020805490500381548110151561203157fe5b9060005260206000209060020201600460008560010160009054906101000a900473ffffffffffffffffffffffffffffffffffffffff1673ffffffffffffffffffffffffffffffffffffffff1673ffffffffffffffffffffffffffffffffffffffff168152602001908152602001600020828154811015156120af57fe5b90600052602060002090600202016000820160009054906101000a900473ffffffffffffffffffffffffffffffffffffffff168160000160006101000a81548173ffffffffffffffffffffffffffffffffffffffff021916908373ffffffffffffffffffffffffffffffffffffffff16021790555060018201548160010155905050600460008460010160009054906101000a900473ffffffffffffffffffffffffffffffffffffffff1673ffffffffffffffffffffffffffffffffffffffff1673ffffffffffffffffffffffffffffffffffffffff1681526020019081526020016000208054809190600190036121a79190614292565b506121ba565b8080600101915050611d61565b5b600460003373ffffffffffffffffffffffffffffffffffffffff1673ffffffffffffffffffffffffffffffffffffffff1681526020019081526020016000206001600460003373ffffffffffffffffffffffffffffffffffffffff1673ffffffffffffffffffffffffffffffffffffffff168152602001908152602001600020805490500381548110151561224c57fe5b9060005260206000209060020201600460003373ffffffffffffffffffffffffffffffffffffffff1673ffffffffffffffffffffffffffffffffffffffff168152602001908152602001600020898154811015156122a657fe5b90600052602060002090600202016000820160009054906101000a900473ffffffffffffffffffffffffffffffffffffffff168160000160006101000a81548173ffffffffffffffffffffffffffffffffffffffff021916908373ffffffffffffffffffffffffffffffffffffffff16021790555060018201548160010155905050600460003373ffffffffffffffffffffffffffffffffffffffff1673ffffffffffffffffffffffffffffffffffffffff16815260200190815260200160002080548091906001900361237a9190614292565b50612385565b600080fd5b5b5b5050505050505050565b6000806000600260003373ffffffffffffffffffffffffffffffffffffffff1673ffffffffffffffffffffffffffffffffffffffff1681526020019081526020016000209250600460003373ffffffffffffffffffffffffffffffffffffffff1673ffffffffffffffffffffffffffffffffffffffff1681526020019081526020016000208681548110151561242357fe5b90600052602060002090600202019150600360008360000160009054906101000a900473ffffffffffffffffffffffffffffffffffffffff1673ffffffffffffffffffffffffffffffffffffffff1673ffffffffffffffffffffffffffffffffffffffff16815260200190815260200160002082600101548154811015156124a757fe5b9060005260206000209060050201905060018360000160009054906101000a900460ff1660ff1614801561250257508060020160169054906101000a900460ff1660ff168360000160019054906101000a900460ff1660ff16145b151561250d57600080fd5b6125b3816003018054600181600116156101000203166002900480601f0160208091040260200160405190810160405280929190818152602001828054600181600116156101000203166002900480156125a85780601f1061257d576101008083540402835291602001916125a8565b820191906000526020600020905b81548152906001019060200180831161258b57829003601f168201915b505050505085614041565b8160030190805190602001906125ca929190614212565b508415612668578160000160009054906101000a900473ffffffffffffffffffffffffffffffffffffffff1673ffffffffffffffffffffffffffffffffffffffff166108fc349081150290604051600060405180830381858888f1935050505015801561263b573d6000803e3d6000fd5b50348160040181905550600a8160020160156101000a81548160ff021916908360ff160217905550612687565b60098160020160156101000a81548160ff021916908360ff1602179055505b600460003373ffffffffffffffffffffffffffffffffffffffff1673ffffffffffffffffffffffffffffffffffffffff1681526020019081526020016000206001600460003373ffffffffffffffffffffffffffffffffffffffff1673ffffffffffffffffffffffffffffffffffffffff168152602001908152602001600020805490500381548110151561271857fe5b9060005260206000209060020201600460003373ffffffffffffffffffffffffffffffffffffffff1673ffffffffffffffffffffffffffffffffffffffff1681526020019081526020016000208781548110151561277257fe5b90600052602060002090600202016000820160009054906101000a900473ffffffffffffffffffffffffffffffffffffffff168160000160006101000a81548173ffffffffffffffffffffffffffffffffffffffff021916908373ffffffffffffffffffffffffffffffffffffffff16021790555060018201548160010155905050600460003373ffffffffffffffffffffffffffffffffffffffff1673ffffffffffffffffffffffffffffffffffffffff1681526020019081526020016000208054809190600190036128469190614292565b507f42ccd527704326ec7d51567d4d1950895511d2c7d5e1394ad5bad36a4ab250db33348460000160009054906101000a900473ffffffffffffffffffffffffffffffffffffffff16604051808473ffffffffffffffffffffffffffffffffffffffff1673ffffffffffffffffffffffffffffffffffffffff1681526020018381526020018273ffffffffffffffffffffffffffffffffffffffff1673ffffffffffffffffffffffffffffffffffffffff168152602001935050505060405180910390a1505050505050565b600080600080600260008673ffffffffffffffffffffffffffffffffffffffff1673ffffffffffffffffffffffffffffffffffffffff16815260200190815260200160002090508060000160009054906101000a900460ff168160000160019054906101000a900460ff168260000160029054906101000a900460ff16935093509350509193909250565b60008060008060008060606000806000600260003373ffffffffffffffffffffffffffffffffffffffff1673ffffffffffffffffffffffffffffffffffffffff1681526020019081526020016000209150600360008d73ffffffffffffffffffffffffffffffffffffffff1673ffffffffffffffffffffffffffffffffffffffff168152602001908152602001600020805490508b101515612a3e57600080fd5b600360008d73ffffffffffffffffffffffffffffffffffffffff1673ffffffffffffffffffffffffffffffffffffffff1681526020019081526020016000208b815481101515612a8a57fe5b906000526020600020906005020190506001600260008e73ffffffffffffffffffffffffffffffffffffffff1673ffffffffffffffffffffffffffffffffffffffff16815260200190815260200160002060000160029054906101000a900460ff1660ff161480612b80575060018260000160009054906101000a900460ff1660ff16148015612b7f5750600260008d73ffffffffffffffffffffffffffffffffffffffff1673ffffffffffffffffffffffffffffffffffffffff16815260200190815260200160002060000160019054906101000a900460ff1660ff168260000160019054906101000a900460ff1660ff16145b5b80612bb657503373ffffffffffffffffffffffffffffffffffffffff168c73ffffffffffffffffffffffffffffffffffffffff16145b15612cfa5780600001548160010160009054906101000a900473ffffffffffffffffffffffffffffffffffffffff168260020160009054906101000a900473ffffffffffffffffffffffffffffffffffffffff168360020160149054906101000a900460ff168460020160159054906101000a900460ff168560020160169054906101000a900460ff16866003018760040154818054600181600116156101000203166002900480601f016020809104026020016040519081016040528092919081815260200182805460018160011615610100020316600290048015612cde5780601f10612cb357610100808354040283529160200191612cde565b820191906000526020600020905b815481529060010190602001808311612cc157829003601f168201915b505050505091509950995099509950995099509950995061305f565b60028260000160009054906101000a900460ff1660ff161415612e93573373ffffffffffffffffffffffffffffffffffffffff168160010160009054906101000a900473ffffffffffffffffffffffffffffffffffffffff1673ffffffffffffffffffffffffffffffffffffffff161415612e8e5780600001548160010160009054906101000a900473ffffffffffffffffffffffffffffffffffffffff1660008360020160149054906101000a900460ff168460020160159054906101000a900460ff168560020160169054906101000a900460ff16866003018760040154859550818054600181600116156101000203166002900480601f016020809104026020016040519081016040528092919081815260200182805460018160011615610100020316600290048015612e725780601f10612e4757610100808354040283529160200191612e72565b820191906000526020600020905b815481529060010190602001808311612e5557829003601f168201915b505050505091509950995099509950995099509950995061305f565b61301c565b60038260000160009054906101000a900460ff1660ff16141561301b573373ffffffffffffffffffffffffffffffffffffffff168160020160009054906101000a900473ffffffffffffffffffffffffffffffffffffffff1673ffffffffffffffffffffffffffffffffffffffff16141561301a57806000015460008260020160009054906101000a900473ffffffffffffffffffffffffffffffffffffffff168360020160149054906101000a900460ff168460020160159054906101000a900460ff166000866003018760040154869650829250818054600181600116156101000203166002900480601f016020809104026020016040519081016040528092919081815260200182805460018160011615610100020316600290048015612ffe5780601f10612fd357610100808354040283529160200191612ffe565b820191906000526020600020905b815481529060010190602001808311612fe157829003601f168201915b505050505091509950995099509950995099509950995061305f565b5b5b6000806000806000806000869650859550849450839350829250819150602060405190810160405280600081525090809050995099509950995099509950995099505b50509295985092959890939650565b60046020528160005260406000208181548110151561308957fe5b9060005260206000209060020201600091509150508060000160009054906101000a900473ffffffffffffffffffffffffffffffffffffffff16908060010154905082565b60076020528060005260406000206000915090505481565b6000809054906101000a900473ffffffffffffffffffffffffffffffffffffffff1681565b600060028060003373ffffffffffffffffffffffffffffffffffffffff1673ffffffffffffffffffffffffffffffffffffffff16815260200190815260200160002060000160009054906101000a900460ff1660ff161115151561316e57600080fd5b613177836108dc565b15156134245760028260ff16141561324c5782600160006101000a81548173ffffffffffffffffffffffffffffffffffffffff021916908373ffffffffffffffffffffffffffffffffffffffff1602179055506002806000600160009054906101000a900473ffffffffffffffffffffffffffffffffffffffff1673ffffffffffffffffffffffffffffffffffffffff1673ffffffffffffffffffffffffffffffffffffffff16815260200190815260200160002060000160006101000a81548160ff021916908360ff16021790555061341b565b60038260ff1614156132b9576003600260008573ffffffffffffffffffffffffffffffffffffffff1673ffffffffffffffffffffffffffffffffffffffff16815260200190815260200160002060000160006101000a81548160ff021916908360ff16021790555061341a565b81600260008573ffffffffffffffffffffffffffffffffffffffff1673ffffffffffffffffffffffffffffffffffffffff16815260200190815260200160002060000160006101000a81548160ff021916908360ff160217905550600260003373ffffffffffffffffffffffffffffffffffffffff1673ffffffffffffffffffffffffffffffffffffffff16815260200190815260200160002060000160019054906101000a900460ff16600260008573ffffffffffffffffffffffffffffffffffffffff1673ffffffffffffffffffffffffffffffffffffffff16815260200190815260200160002060000160016101000a81548160ff021916908360ff16021790555060028060008573ffffffffffffffffffffffffffffffffffffffff1673ffffffffffffffffffffffffffffffffffffffff16815260200190815260200160002060000160026101000a81548160ff021916908360ff1602179055505b5b60019050613429565b600090505b92915050565b600060028060003373ffffffffffffffffffffffffffffffffffffffff1673ffffffffffffffffffffffffffffffffffffffff16815260200190815260200160002060000160009054906101000a900460ff1660ff1611151561349157600080fd5b60038460ff1611806134a6575060008460ff16105b156134b057600080fd5b6003600260008873ffffffffffffffffffffffffffffffffffffffff1673ffffffffffffffffffffffffffffffffffffffff16815260200190815260200160002060000160009054906101000a900460ff1660ff1614158015613516575060018460ff16115b1561352057600080fd5b60018460ff161480613535575060038460ff16145b1561356457600160009054906101000a900473ffffffffffffffffffffffffffffffffffffffff169050613569565b600090505b600360003373ffffffffffffffffffffffffffffffffffffffff1673ffffffffffffffffffffffffffffffffffffffff168152602001908152602001600020610100604051908101604052804281526020018373ffffffffffffffffffffffffffffffffffffffff1681526020018873ffffffffffffffffffffffffffffffffffffffff1681526020018760ff1681526020018660ff168152602001600260003373ffffffffffffffffffffffffffffffffffffffff1673ffffffffffffffffffffffffffffffffffffffff16815260200190815260200160002060000160019054906101000a900460ff1660ff16815260200185815260200184815250908060018154018082558091505090600182039060005260206000209060050201600090919290919091506000820151816000015560208201518160010160006101000a81548173ffffffffffffffffffffffffffffffffffffffff021916908373ffffffffffffffffffffffffffffffffffffffff16021790555060408201518160020160006101000a81548173ffffffffffffffffffffffffffffffffffffffff021916908373ffffffffffffffffffffffffffffffffffffffff16021790555060608201518160020160146101000a81548160ff021916908360ff16021790555060808201518160020160156101000a81548160ff021916908360ff16021790555060a08201518160020160166101000a81548160ff021916908360ff16021790555060c08201518160030190805190602001906137a99291906142c4565b5060e082015181600401555050507f555612394b52c5f1c8797c64a1e5a581e7dd3903533eae6164f2053a0fb8fd72336001600360003373ffffffffffffffffffffffffffffffffffffffff1673ffffffffffffffffffffffffffffffffffffffff16815260200190815260200160002080549050036000809054906101000a900473ffffffffffffffffffffffffffffffffffffffff16604051808473ffffffffffffffffffffffffffffffffffffffff1673ffffffffffffffffffffffffffffffffffffffff1681526020018381526020018273ffffffffffffffffffffffffffffffffffffffff1673ffffffffffffffffffffffffffffffffffffffff168152602001935050505060405180910390a160008460ff161415613a83576004600060056000600260003373ffffffffffffffffffffffffffffffffffffffff1673ffffffffffffffffffffffffffffffffffffffff16815260200190815260200160002060000160019054906101000a900460ff1660ff1660ff16815260200190815260200160002060009054906101000a900473ffffffffffffffffffffffffffffffffffffffff1673ffffffffffffffffffffffffffffffffffffffff1673ffffffffffffffffffffffffffffffffffffffff16815260200190815260200160002060408051908101604052803373ffffffffffffffffffffffffffffffffffffffff1681526020016001600360003373ffffffffffffffffffffffffffffffffffffffff1673ffffffffffffffffffffffffffffffffffffffff16815260200190815260200160002080549050038152509080600181540180825580915050906001820390600052602060002090600202016000909192909190915060008201518160000160006101000a81548173ffffffffffffffffffffffffffffffffffffffff021916908373ffffffffffffffffffffffffffffffffffffffff16021790555060208201518160010155505050613ca3565b60018460ff161115613ca257600460008773ffffffffffffffffffffffffffffffffffffffff1673ffffffffffffffffffffffffffffffffffffffff16815260200190815260200160002060408051908101604052803373ffffffffffffffffffffffffffffffffffffffff1681526020016001600360003373ffffffffffffffffffffffffffffffffffffffff1673ffffffffffffffffffffffffffffffffffffffff16815260200190815260200160002080549050038152509080600181540180825580915050906001820390600052602060002090600202016000909192909190915060008201518160000160006101000a81548173ffffffffffffffffffffffffffffffffffffffff021916908373ffffffffffffffffffffffffffffffffffffffff160217905550602082015181600101555050507f555612394b52c5f1c8797c64a1e5a581e7dd3903533eae6164f2053a0fb8fd72336001600360003373ffffffffffffffffffffffffffffffffffffffff1673ffffffffffffffffffffffffffffffffffffffff168152602001908152602001600020805490500388604051808473ffffffffffffffffffffffffffffffffffffffff1673ffffffffffffffffffffffffffffffffffffffff1681526020018381526020018273ffffffffffffffffffffffffffffffffffffffff1673ffffffffffffffffffffffffffffffffffffffff168152602001935050505060405180910390a15b5b60028460ff16141515613f075760046000600160009054906101000a900473ffffffffffffffffffffffffffffffffffffffff1673ffffffffffffffffffffffffffffffffffffffff1673ffffffffffffffffffffffffffffffffffffffff16815260200190815260200160002060408051908101604052803373ffffffffffffffffffffffffffffffffffffffff1681526020016001600360003373ffffffffffffffffffffffffffffffffffffffff1673ffffffffffffffffffffffffffffffffffffffff16815260200190815260200160002080549050038152509080600181540180825580915050906001820390600052602060002090600202016000909192909190915060008201518160000160006101000a81548173ffffffffffffffffffffffffffffffffffffffff021916908373ffffffffffffffffffffffffffffffffffffffff160217905550602082015181600101555050507f555612394b52c5f1c8797c64a1e5a581e7dd3903533eae6164f2053a0fb8fd72336001600360003373ffffffffffffffffffffffffffffffffffffffff1673ffffffffffffffffffffffffffffffffffffffff1681526020019081526020016000208054905003600160009054906101000a900473ffffffffffffffffffffffffffffffffffffffff16604051808473ffffffffffffffffffffffffffffffffffffffff1673ffffffffffffffffffffffffffffffffffffffff1681526020018381526020018273ffffffffffffffffffffffffffffffffffffffff1673ffffffffffffffffffffffffffffffffffffffff168152602001935050505060405180910390a15b505050505050565b600060028060003373ffffffffffffffffffffffffffffffffffffffff1673ffffffffffffffffffffffffffffffffffffffff16815260200190815260200160002060000160009054906101000a900460ff1660ff16141515613f7157600080fd5b81600760008560ff1660ff1681526020019081526020016000208190555092915050565b600060028060003373ffffffffffffffffffffffffffffffffffffffff1673ffffffffffffffffffffffffffffffffffffffff16815260200190815260200160002060000160009054906101000a900460ff1660ff16141515613ff757600080fd5b81600660008560ff1660ff1681526020019081526020016000208190555092915050565b600160009054906101000a900473ffffffffffffffffffffffffffffffffffffffff1681565b606080606080606060008088955087945084518651016040519080825280601f01601f1916602001820160405280156140895781602001602082028038833980820191505090505b50935083925060009150600090505b855181101561414b5785818151811015156140af57fe5b9060200101517f010000000000000000000000000000000000000000000000000000000000000090047f010000000000000000000000000000000000000000000000000000000000000002838380600101945081518110151561410e57fe5b9060200101907effffffffffffffffffffffffffffffffffffffffffffffffffffffffffffff1916908160001a9053508080600101915050614098565b600090505b845181101561420357848181518110151561416757fe5b9060200101517f010000000000000000000000000000000000000000000000000000000000000090047f01000000000000000000000000000000000000000000000000000000000000000283838060010194508151811015156141c657fe5b9060200101907effffffffffffffffffffffffffffffffffffffffffffffffffffffffffffff1916908160001a9053508080600101915050614150565b82965050505050505092915050565b828054600181600116156101000203166002900490600052602060002090601f016020900481019282601f1061425357805160ff1916838001178555614281565b82800160010185558215614281579182015b82811115614280578251825591602001919060010190614265565b5b50905061428e9190614344565b5090565b8154818355818111156142bf576002028160020283600052602060002091820191016142be9190614369565b5b505050565b828054600181600116156101000203166002900490600052602060002090601f016020900481019282601f1061430557805160ff1916838001178555614333565b82800160010185558215614333579182015b82811115614332578251825591602001919060010190614317565b5b5090506143409190614344565b5090565b61436691905b8082111561436257600081600090555060010161434a565b5090565b90565b6143b491905b808211156143b057600080820160006101000a81549073ffffffffffffffffffffffffffffffffffffffff021916905560018201600090555060020161436f565b5090565b905600a165627a7a7230582033eb1d519996e0c2ecb07b3d1916a95b6940df9a31b222db8396aaf721c7b5d40029",
  "source": "pragma solidity ^0.4.24;\ncontract Entity {\n   address public owner;\n   address public spvm;\n\n   struct User {\n      uint8 userType;\n      uint8 instit;\n      uint8 status;\n   }\n   \n   struct Request {\n       uint256 timestamp;\n       address police;\n       address repair;\n       uint8 claimType;\n       uint8 status;\n       uint8 instit;\n       string desc;\n       uint256 payment;\n   }\n    \n    struct Validation {\n        address client;\n        uint256 index;\n    }\n    \n   /* The address of the player => the user info   \n    so playerInfo[some_address].amountBet gives the amount */\n    mapping(address => User) internal userInfo;\n    mapping(address => Request[]) internal requests;\n    mapping(address => Validation[]) public validations;\n    mapping(uint8 => address) internal bank;\n    mapping(uint8 => uint256) public avg;\n    mapping(uint8 => uint256) public sd;\n\n   event claimRequest(address initiator, uint256 index, address verifier);\n   event payment(address initiator, uint256 amount, address receiver);\n\n   /* Fallback function in case someone sends ether to the contract so it doesn't \n   get lost and to increase the treasury of this contract that will be distributed in each game */\n    function() public payable {}\n    \n    function checkFund() public view returns(uint256){\n        require(userInfo[msg.sender].userType == 1);\n        return address(this).balance;\n    }\n    \n    constructor() public {\n        owner = msg.sender;\n        userInfo[owner].userType = 1;\n        userInfo[owner].instit = 1;\n        bank[1] = owner;\n        avg[1] = 30000;\n        sd[1] = 20000;\n        avg[2] = 200;\n        sd[2] = 200;\n    }\n\n    function kill() public {\n        if(msg.sender == owner) selfdestruct(owner);\n    }\n    \n    function checkUser(address user) public view returns(bool){\n        if(userInfo[user].userType != 0) return true;\n        return false;\n    }\n\n    function addUser(address user, uint8 userType) public returns(bool) {\n        require(userInfo[msg.sender].userType <= 2);\n        if( !checkUser(user) ){\n            if(userType == 2){ \n                spvm = user;\n                userInfo[spvm].userType = 2;\n            }\n            else if(userType == 3) userInfo[user].userType = 3;\n            else{\n                userInfo[user].userType = userType;\n                userInfo[user].instit = userInfo[msg.sender].instit;\n                userInfo[user].status = 2;\n            }\n            \n            return true;\n        }\n        return false;\n    }\n    \n    function openStatus(address user, uint8 status) public returns(bool){\n        require(user == msg.sender || userInfo[msg.sender].userType == 2);\n        if( status != 2 || status != 1 ) return false;\n        else if(userInfo[msg.sender].status > 2 ) return false;\n        userInfo[msg.sender].status = status;\n        return true;\n    }\n    \n   /* Permissions, msg.sender can be tweaked so future improvement */\n    function getUser(address user) public view returns(uint8, uint8, uint8){\n        User storage tmp = userInfo[user];\n        return (tmp.userType, tmp.instit, tmp.status);\n    }\n    \n    /* Police and Repair,  Bad practice but works here */\n    function getRequest(address user,uint256 index) public view returns(uint256, address, address, uint8,uint8, uint8, string, uint256){\n        User storage tmp = userInfo[msg.sender];\n        if(index >= requests[user].length) revert();\n        Request storage req = requests[user][index];\n        if(userInfo[user].status == 1 || \n            (tmp.userType== 1 && tmp.instit==userInfo[user].instit) || user==msg.sender) \n            return (req.timestamp, req.police, req.repair, req.claimType, req.status, req.instit, req.desc, req.payment);\n        else if(tmp.userType == 2){\n            if (req.police == msg.sender) \n                return (req.timestamp, req.police, 0, req.claimType, req.status, req.instit, req.desc, req.payment);\n        }else if(tmp.userType == 3){\n            if (req.repair == msg.sender) \n                return (req.timestamp,0, req.repair, req.claimType,req.status, 0, req.desc, req.payment);\n        }\n        return(0,0,0,0,0,0,\"\",0);\n    }\n   \n\n    function requestClaim(address garage, uint8 claimType, uint8 status, string desc, uint256 paym) public{\n        require(userInfo[msg.sender].userType > 2);\n        // make sure status flag is not beyond initiation flags\n        if(status > 3 || status < 0) revert();\n        else if(userInfo[garage].userType != 3 && status > 1) revert();\n        if(status == 1 || status == 3) address police = spvm;\n        else police = 0;\n        requests[msg.sender].push(Request({\n                                timestamp: now,\n                                police: police,\n                                repair: garage,\n                                claimType: claimType,\n                                status: status,\n                                instit: userInfo[msg.sender].instit,\n                                desc: desc,\n                                payment: paym\n        }));\n        emit claimRequest(msg.sender, requests[msg.sender].length - 1, owner);\n        if(status == 0) validations[bank[userInfo[msg.sender].instit]].push(Validation(msg.sender, requests[msg.sender].length - 1));\n        else if(status > 1){\n         validations[garage].push(Validation(msg.sender, requests[msg.sender].length - 1));\n         emit claimRequest(msg.sender, requests[msg.sender].length - 1, garage);\n        }\n        if(status != 2 ) {\n         validations[spvm].push(Validation(msg.sender, requests[msg.sender].length - 1));\n         emit claimRequest(msg.sender, requests[msg.sender].length - 1, spvm);\n        }\n    }\n    \n   \n    /* Functions for police/repair\n     0: init, 1-3: G/P/Both valid required, 4-6: GPB confirmed, 7-9: GPB denied, 10: Paid */\n    function validate(uint256 index, bool answer, string expl) public{\n        User storage me = userInfo[msg.sender];\n        if(index >= validations[msg.sender].length) revert();\n        Validation storage valid = validations[msg.sender][index];\n        Request storage tmp = requests[valid.client][valid.index];\n        require(me.userType > 1 && me.userType < 4);\n        if(me.userType == 2){\n            if(tmp.status != 1 && tmp.status != 3 && tmp.status != 5 ) revert();\n            tmp.desc = concat(tmp.desc, expl);\n            if(answer){\n                if(tmp.status == 3){\n                    tmp.status = 4;\n                }else{\n                    if(tmp.claimType !=0 && tmp.payment!=0 && tmp.payment < avg[tmp.claimType]){\n                        valid.client.transfer(tmp.payment);\n                        tmp.status = 10;\n                    } else{\n                        tmp.status = 6;\n                        address bk = bank[tmp.instit];\n                        validations[bk].push(Validation(valid.client, valid.index));\n                        emit claimRequest(valid.client, index, bk);\n                    }\n                }\n            }else{\n                tmp.status = 7;\n                for(uint256 i=0; i< validations[tmp.repair].length; i++){\n                if(validations[tmp.repair][i].client == valid.client && validations[tmp.repair][i].index == valid.index){\n                    validations[tmp.repair][i] = validations[tmp.repair][(validations[tmp.repair].length-1)];\n                    validations[tmp.repair].length--;\n                    break;\n                }\n                }\n            }\n            validations[msg.sender][index] = validations[msg.sender][validations[msg.sender].length-1];\n            validations[msg.sender].length--;    \n        }\n        else if (me.userType == 3 && tmp.repair == msg.sender){\n            if(tmp.status == 2 || tmp.status == 3 || tmp.status == 4 ){\n                tmp.desc = concat(tmp.desc, expl);\n                if(answer){\n                    if(tmp.status == 3){\n                        tmp.status = 5;\n                    }else{\n                        tmp.status = 6;\n                        if(tmp.claimType !=0 && tmp.payment!=0 && tmp.payment < avg[tmp.claimType]){\n                            valid.client.transfer(tmp.payment);\n                            tmp.status = 10;\n                        } else{\n                            bk = bank[tmp.instit];\n                            validations[bk].push(Validation(valid.client, valid.index)); \n                            emit claimRequest(valid.client, index, bk);\n                        }\n                    }               \n                }else{\n                    tmp.status = 8;\n                    for(i=0; i< validations[tmp.police].length; i++){\n                if(validations[tmp.police][i].client == valid.client && validations[tmp.police][i].index == valid.index){\n                    validations[tmp.police][i] = validations[tmp.police][validations[tmp.police].length-1];\n                    validations[tmp.police].length--;\n                    break;\n                }\n            }\n                }\n                validations[msg.sender][index] = validations[msg.sender][validations[msg.sender].length-1];\n                validations[msg.sender].length--;\n            } else revert();\n        }\n    }\n   \n    function payClaim(uint256 index, bool answer, string expl) payable public{\n        User storage me = userInfo[msg.sender];\n        Validation storage valid = validations[msg.sender][index];\n        Request storage tmp = requests[valid.client][valid.index];\n        require(me.userType == 1 && me.instit==tmp.instit);\n        tmp.desc = concat(tmp.desc, expl);\n        if(answer){\n            valid.client.transfer(msg.value);\n            tmp.payment = msg.value;  \n            tmp.status = 10;    \n        }else{\n            tmp.status = 9;\n        }\n        validations[msg.sender][index] = validations[msg.sender][validations[msg.sender].length-1];\n        validations[msg.sender].length--;\n        emit payment(msg.sender, msg.value, valid.client);\n    }\n    \n    function setAvg(uint8 ctype, uint256 amount) public returns(bool){\n        require(userInfo[msg.sender].userType == 2);\n        avg[ctype] = amount;\n    }\n    \n    function setSd(uint8 ctype, uint256 amount) public returns(bool){\n        require(userInfo[msg.sender].userType == 2);\n        sd[ctype] = amount;\n    }\n    \n    function concat(string _a, string _b) internal pure returns (string){\n        bytes memory _ba = bytes(_a);\n        bytes memory _bb = bytes(_b);\n        string memory newStr = new string(_ba.length + _bb.length);\n        bytes memory result = bytes(newStr);\n        uint k = 0;\n        for (uint i = 0; i < _ba.length; i++) result[k++] = _ba[i];\n        for (i = 0; i < _bb.length; i++) result[k++] = _bb[i];\n        return string(result);\n    }\n}\n",
  "sourcePath": "/home/wli/Documents/Matcha/www/contracts/Entity.sol",
  "compiler": {
    "name": "solc",
    "version": "0.4.24+commit.e67f0147.Emscripten.clang"
  },
  "schemaVersion": "2.0.1",
  "updatedAt": "2018-08-15T19:21:41.525Z"
}